{
  "_format": "hh-sol-artifact-1",
  "contractName": "DAO",
  "sourceName": "contracts/DAO.sol",
  "abi": [
    {
      "anonymous": false,
      "inputs": [
        {
          "indexed": true,
          "internalType": "address",
          "name": "initiator",
          "type": "address"
        },
        {
          "indexed": false,
          "internalType": "bytes32",
          "name": "role",
          "type": "bytes32"
        },
        {
          "indexed": false,
          "internalType": "string",
          "name": "message",
          "type": "string"
        },
        {
          "indexed": true,
          "internalType": "address",
          "name": "beneficiary",
          "type": "address"
        },
        {
          "indexed": false,
          "internalType": "uint256",
          "name": "amount",
          "type": "uint256"
        }
      ],
      "name": "Action",
      "type": "event"
    },
    {
      "anonymous": false,
      "inputs": [
        {
          "indexed": true,
          "internalType": "bytes32",
          "name": "role",
          "type": "bytes32"
        },
        {
          "indexed": true,
          "internalType": "bytes32",
          "name": "previousAdminRole",
          "type": "bytes32"
        },
        {
          "indexed": true,
          "internalType": "bytes32",
          "name": "newAdminRole",
          "type": "bytes32"
        }
      ],
      "name": "RoleAdminChanged",
      "type": "event"
    },
    {
      "anonymous": false,
      "inputs": [
        {
          "indexed": true,
          "internalType": "bytes32",
          "name": "role",
          "type": "bytes32"
        },
        {
          "indexed": true,
          "internalType": "address",
          "name": "account",
          "type": "address"
        },
        {
          "indexed": true,
          "internalType": "address",
          "name": "sender",
          "type": "address"
        }
      ],
      "name": "RoleGranted",
      "type": "event"
    },
    {
      "anonymous": false,
      "inputs": [
        {
          "indexed": true,
          "internalType": "bytes32",
          "name": "role",
          "type": "bytes32"
        },
        {
          "indexed": true,
          "internalType": "address",
          "name": "account",
          "type": "address"
        },
        {
          "indexed": true,
          "internalType": "address",
          "name": "sender",
          "type": "address"
        }
      ],
      "name": "RoleRevoked",
      "type": "event"
    },
    {
      "inputs": [],
      "name": "DEFAULT_ADMIN_ROLE",
      "outputs": [
        {
          "internalType": "bytes32",
          "name": "",
          "type": "bytes32"
        }
      ],
      "stateMutability": "view",
      "type": "function"
    },
    {
      "inputs": [
        {
          "internalType": "uint256",
          "name": "proposalId",
          "type": "uint256"
        },
        {
          "internalType": "bool",
          "name": "choosen",
          "type": "bool"
        }
      ],
      "name": "Vote",
      "outputs": [
        {
          "components": [
            {
              "internalType": "address",
              "name": "voter",
              "type": "address"
            },
            {
              "internalType": "uint256",
              "name": "timestamp",
              "type": "uint256"
            },
            {
              "internalType": "bool",
              "name": "chosen",
              "type": "bool"
            }
          ],
          "internalType": "struct DAO.VotedStruct",
          "name": "",
          "type": "tuple"
        }
      ],
      "stateMutability": "nonpayable",
      "type": "function"
    },
    {
      "inputs": [],
      "name": "contribute",
      "outputs": [],
      "stateMutability": "payable",
      "type": "function"
    },
    {
      "inputs": [
        {
          "internalType": "string",
          "name": "title",
          "type": "string"
        },
        {
          "internalType": "string",
          "name": "description",
          "type": "string"
        },
        {
          "internalType": "address",
          "name": "beneficiary",
          "type": "address"
        },
        {
          "internalType": "uint256",
          "name": "amount",
          "type": "uint256"
        }
      ],
      "name": "createProposal",
      "outputs": [],
      "stateMutability": "nonpayable",
      "type": "function"
    },
    {
      "inputs": [],
      "name": "daoBalance",
      "outputs": [
        {
          "internalType": "uint256",
          "name": "",
          "type": "uint256"
        }
      ],
      "stateMutability": "view",
      "type": "function"
    },
    {
      "inputs": [],
      "name": "getBalance",
      "outputs": [
        {
          "internalType": "uint256",
          "name": "",
          "type": "uint256"
        }
      ],
      "stateMutability": "view",
      "type": "function"
    },
    {
      "inputs": [],
      "name": "getContributorBalance",
      "outputs": [
        {
          "internalType": "uint256",
          "name": "",
          "type": "uint256"
        }
      ],
      "stateMutability": "view",
      "type": "function"
    },
    {
      "inputs": [
        {
          "internalType": "uint256",
          "name": "proposalId",
          "type": "uint256"
        }
      ],
      "name": "getProposals",
      "outputs": [
        {
          "components": [
            {
              "internalType": "uint256",
              "name": "id",
              "type": "uint256"
            },
            {
              "internalType": "uint256",
              "name": "amount",
              "type": "uint256"
            },
            {
              "internalType": "uint256",
              "name": "duration",
              "type": "uint256"
            },
            {
              "internalType": "uint256",
              "name": "upvotes",
              "type": "uint256"
            },
            {
              "internalType": "uint256",
              "name": "downvotes",
              "type": "uint256"
            },
            {
              "internalType": "string",
              "name": "title",
              "type": "string"
            },
            {
              "internalType": "string",
              "name": "description",
              "type": "string"
            },
            {
              "internalType": "bool",
              "name": "passed",
              "type": "bool"
            },
            {
              "internalType": "bool",
              "name": "paid",
              "type": "bool"
            },
            {
              "internalType": "address payable",
              "name": "beneficiary",
              "type": "address"
            },
            {
              "internalType": "address",
              "name": "proposer",
              "type": "address"
            },
            {
              "internalType": "address",
              "name": "executor",
              "type": "address"
            }
          ],
          "internalType": "struct DAO.ProposalStruct",
          "name": "",
          "type": "tuple"
        }
      ],
      "stateMutability": "view",
      "type": "function"
    },
    {
      "inputs": [],
      "name": "getProposals",
      "outputs": [
        {
          "components": [
            {
              "internalType": "uint256",
              "name": "id",
              "type": "uint256"
            },
            {
              "internalType": "uint256",
              "name": "amount",
              "type": "uint256"
            },
            {
              "internalType": "uint256",
              "name": "duration",
              "type": "uint256"
            },
            {
              "internalType": "uint256",
              "name": "upvotes",
              "type": "uint256"
            },
            {
              "internalType": "uint256",
              "name": "downvotes",
              "type": "uint256"
            },
            {
              "internalType": "string",
              "name": "title",
              "type": "string"
            },
            {
              "internalType": "string",
              "name": "description",
              "type": "string"
            },
            {
              "internalType": "bool",
              "name": "passed",
              "type": "bool"
            },
            {
              "internalType": "bool",
              "name": "paid",
              "type": "bool"
            },
            {
              "internalType": "address payable",
              "name": "beneficiary",
              "type": "address"
            },
            {
              "internalType": "address",
              "name": "proposer",
              "type": "address"
            },
            {
              "internalType": "address",
              "name": "executor",
              "type": "address"
            }
          ],
          "internalType": "struct DAO.ProposalStruct[]",
          "name": "proposals",
          "type": "tuple[]"
        }
      ],
      "stateMutability": "view",
      "type": "function"
    },
    {
      "inputs": [
        {
          "internalType": "bytes32",
          "name": "role",
          "type": "bytes32"
        }
      ],
      "name": "getRoleAdmin",
      "outputs": [
        {
          "internalType": "bytes32",
          "name": "",
          "type": "bytes32"
        }
      ],
      "stateMutability": "view",
      "type": "function"
    },
    {
      "inputs": [],
      "name": "getStakeholderBalance",
      "outputs": [
        {
          "internalType": "uint256",
          "name": "",
          "type": "uint256"
        }
      ],
      "stateMutability": "view",
      "type": "function"
    },
    {
      "inputs": [],
      "name": "getStakeholderVotes",
      "outputs": [
        {
          "internalType": "uint256[]",
          "name": "",
          "type": "uint256[]"
        }
      ],
      "stateMutability": "view",
      "type": "function"
    },
    {
      "inputs": [
        {
          "internalType": "uint256",
          "name": "proposalId",
          "type": "uint256"
        }
      ],
      "name": "getVoteOf",
      "outputs": [
        {
          "components": [
            {
              "internalType": "address",
              "name": "voter",
              "type": "address"
            },
            {
              "internalType": "uint256",
              "name": "timestamp",
              "type": "uint256"
            },
            {
              "internalType": "bool",
              "name": "chosen",
              "type": "bool"
            }
          ],
          "internalType": "struct DAO.VotedStruct[]",
          "name": "",
          "type": "tuple[]"
        }
      ],
      "stateMutability": "view",
      "type": "function"
    },
    {
      "inputs": [
        {
          "internalType": "bytes32",
          "name": "role",
          "type": "bytes32"
        },
        {
          "internalType": "address",
          "name": "account",
          "type": "address"
        }
      ],
      "name": "grantRole",
      "outputs": [],
      "stateMutability": "nonpayable",
      "type": "function"
    },
    {
      "inputs": [
        {
          "internalType": "bytes32",
          "name": "role",
          "type": "bytes32"
        },
        {
          "internalType": "address",
          "name": "account",
          "type": "address"
        }
      ],
      "name": "hasRole",
      "outputs": [
        {
          "internalType": "bool",
          "name": "",
          "type": "bool"
        }
      ],
      "stateMutability": "view",
      "type": "function"
    },
    {
      "inputs": [],
      "name": "isContributor",
      "outputs": [
        {
          "internalType": "bool",
          "name": "",
          "type": "bool"
        }
      ],
      "stateMutability": "view",
      "type": "function"
    },
    {
      "inputs": [],
      "name": "isStakeholder",
      "outputs": [
        {
          "internalType": "bool",
          "name": "",
          "type": "bool"
        }
      ],
      "stateMutability": "view",
      "type": "function"
    },
    {
      "inputs": [
        {
          "internalType": "uint256",
          "name": "proposalId",
          "type": "uint256"
        }
      ],
      "name": "payBeneficiary",
      "outputs": [
        {
          "internalType": "uint256",
          "name": "",
          "type": "uint256"
        }
      ],
      "stateMutability": "nonpayable",
      "type": "function"
    },
    {
      "inputs": [
        {
          "internalType": "bytes32",
          "name": "role",
          "type": "bytes32"
        },
        {
          "internalType": "address",
          "name": "account",
          "type": "address"
        }
      ],
      "name": "renounceRole",
      "outputs": [],
      "stateMutability": "nonpayable",
      "type": "function"
    },
    {
      "inputs": [
        {
          "internalType": "bytes32",
          "name": "role",
          "type": "bytes32"
        },
        {
          "internalType": "address",
          "name": "account",
          "type": "address"
        }
      ],
      "name": "revokeRole",
      "outputs": [],
      "stateMutability": "nonpayable",
      "type": "function"
    },
    {
      "inputs": [
        {
          "internalType": "bytes4",
          "name": "interfaceId",
          "type": "bytes4"
        }
      ],
      "name": "supportsInterface",
      "outputs": [
        {
          "internalType": "bool",
          "name": "",
          "type": "bool"
        }
      ],
      "stateMutability": "view",
      "type": "function"
    }
  ],
  "bytecode": "0x6101006040527fa0bb1af1c90aa52ed052b92714ff0087008cc720049bf1af77cca2600b31e80c6080908152507ff4bb84e1768dd286358a736d195a0b228621173f655a73b89bf8b191ed0ba07d60a090815250670de0b6b3a764000060c09081525061025863ffffffff1660e09063ffffffff1681525034801561008357600080fd5b50600160008190555060805160a05160c05160e051613ef6610112600039600061142e01526000611b460152600081816106af01528181610940015281816111d5015281816112a1015281816114b70152818161151c015281816117a9015281816118cf01528181611acc01528181611bb40152611d77015260008181610d750152611c350152613ef66000f3fe60806040526004361061012a5760003560e01c80636a80d84d116100ab578063a22f1db71161006f578063a22f1db71461042c578063bd97281614610457578063c02146ac14610482578063d547741f146104ad578063d6cc8016146104d6578063d7bb99ba146105015761012a565b80636a80d84d146103335780637cdc2eb71461035e5780638bfa1f401461038757806391d14854146103c4578063a217fddf146104015761012a565b80632c72fdfc116100f25780632c72fdfc1461024e5780632f2ff15d1461028b57806336568abe146102b45780633cdb48c2146102dd57806362564c48146103085761012a565b806301ffc9a71461012f57806302d779541461016c578063119c37c8146101a957806312065fe0146101e6578063248a9ca314610211575b600080fd5b34801561013b57600080fd5b50610156600480360381019061015191906126d6565b61050b565b604051610163919061271e565b60405180910390f35b34801561017857600080fd5b50610193600480360381019061018e919061276f565b610585565b6040516101a091906128ec565b60405180910390f35b3480156101b557600080fd5b506101d060048036038101906101cb919061276f565b610672565b6040516101dd919061291d565b60405180910390f35b3480156101f257600080fd5b506101fb61098e565b604051610208919061291d565b60405180910390f35b34801561021d57600080fd5b506102386004803603810190610233919061296e565b6109d5565b60405161024591906129aa565b60405180910390f35b34801561025a57600080fd5b506102756004803603810190610270919061276f565b6109f5565b6040516102829190612b81565b60405180910390f35b34801561029757600080fd5b506102b260048036038101906102ad9190612bcf565b610cb1565b005b3480156102c057600080fd5b506102db60048036038101906102d69190612bcf565b610cd2565b005b3480156102e957600080fd5b506102f2610d55565b6040516102ff919061291d565b60405180910390f35b34801561031457600080fd5b5061031d610e23565b60405161032a9190612ddc565b60405180910390f35b34801561033f57600080fd5b50610348611198565b604051610355919061291d565b60405180910390f35b34801561036a57600080fd5b5061038560048036038101906103809190612f33565b611283565b005b34801561039357600080fd5b506103ae60048036038101906103a99190612ffe565b6114f6565b6040516103bb9190613080565b60405180910390f35b3480156103d057600080fd5b506103eb60048036038101906103e69190612bcf565b611820565b6040516103f8919061271e565b60405180910390f35b34801561040d57600080fd5b5061041661188b565b60405161042391906129aa565b60405180910390f35b34801561043857600080fd5b50610441611892565b60405161044e919061314a565b60405180910390f35b34801561046357600080fd5b5061046c6119cb565b604051610479919061291d565b60405180910390f35b34801561048e57600080fd5b506104976119d1565b6040516104a4919061271e565b60405180910390f35b3480156104b957600080fd5b506104d460048036038101906104cf9190612bcf565b611a1a565b005b3480156104e257600080fd5b506104eb611a3b565b6040516104f8919061271e565b60405180910390f35b610509611a84565b005b60007f7965db0b000000000000000000000000000000000000000000000000000000007bffffffffffffffffffffffffffffffffffffffffffffffffffffffff1916827bffffffffffffffffffffffffffffffffffffffffffffffffffffffff1916148061057e575061057d82611daf565b5b9050919050565b606060066000838152602001908152602001600020805480602002602001604051908101604052809291908181526020016000905b8282101561066757838290600052602060002090600302016040518060600160405290816000820160009054906101000a900473ffffffffffffffffffffffffffffffffffffffff1673ffffffffffffffffffffffffffffffffffffffff1673ffffffffffffffffffffffffffffffffffffffff168152602001600182015481526020016002820160009054906101000a900460ff161515151581525050815260200190600101906105ba565b505050509050919050565b60006040518060400160405280601e81526020017f556e617574686f72697a65643a207374616b65686f6c646572206f6e6c7900008152506106d47f000000000000000000000000000000000000000000000000000000000000000033611820565b8190610716576040517f08c379a000000000000000000000000000000000000000000000000000000000815260040161070d91906131b6565b60405180910390fd5b5061071f611e19565b60006004600085815260200190815260200160002090508060010154600354101561077f576040517f08c379a000000000000000000000000000000000000000000000000000000000815260040161077690613224565b60405180910390fd5b8060070160019054906101000a900460ff16156107d1576040517f08c379a00000000000000000000000000000000000000000000000000000000081526004016107c890613290565b60405180910390fd5b806004015481600301541161081b576040517f08c379a0000000000000000000000000000000000000000000000000000000008152600401610812906132fc565b60405180910390fd5b60018160070160016101000a81548160ff021916908315150217905550338160090160006101000a81548173ffffffffffffffffffffffffffffffffffffffff021916908373ffffffffffffffffffffffffffffffffffffffff160217905550806001015460036000828254610891919061334b565b925050819055506108ca8160070160029054906101000a900473ffffffffffffffffffffffffffffffffffffffff168260010154611e68565b508060070160029054906101000a900473ffffffffffffffffffffffffffffffffffffffff1673ffffffffffffffffffffffffffffffffffffffff163373ffffffffffffffffffffffffffffffffffffffff167fa596782d699d74613fcbf59d33e720baabd313d6be9c95e2268f305430305eb77f000000000000000000000000000000000000000000000000000000000000000084600101546040516109729291906133cb565b60405180910390a3600354925050610988611f20565b50919050565b6000600760003373ffffffffffffffffffffffffffffffffffffffff1673ffffffffffffffffffffffffffffffffffffffff16815260200190815260200160002054905090565b600060016000838152602001908152602001600020600101549050919050565b6109fd61258a565b60046000838152602001908152602001600020604051806101800160405290816000820154815260200160018201548152602001600282015481526020016003820154815260200160048201548152602001600582018054610a5e90613436565b80601f0160208091040260200160405190810160405280929190818152602001828054610a8a90613436565b8015610ad75780601f10610aac57610100808354040283529160200191610ad7565b820191906000526020600020905b815481529060010190602001808311610aba57829003601f168201915b50505050508152602001600682018054610af090613436565b80601f0160208091040260200160405190810160405280929190818152602001828054610b1c90613436565b8015610b695780601f10610b3e57610100808354040283529160200191610b69565b820191906000526020600020905b815481529060010190602001808311610b4c57829003601f168201915b505050505081526020016007820160009054906101000a900460ff161515151581526020016007820160019054906101000a900460ff161515151581526020016007820160029054906101000a900473ffffffffffffffffffffffffffffffffffffffff1673ffffffffffffffffffffffffffffffffffffffff1673ffffffffffffffffffffffffffffffffffffffff1681526020016008820160009054906101000a900473ffffffffffffffffffffffffffffffffffffffff1673ffffffffffffffffffffffffffffffffffffffff1673ffffffffffffffffffffffffffffffffffffffff1681526020016009820160009054906101000a900473ffffffffffffffffffffffffffffffffffffffff1673ffffffffffffffffffffffffffffffffffffffff1673ffffffffffffffffffffffffffffffffffffffff16815250509050919050565b610cba826109d5565b610cc381611f2a565b610ccd8383611f3e565b505050565b610cda61201e565b73ffffffffffffffffffffffffffffffffffffffff168173ffffffffffffffffffffffffffffffffffffffff1614610d47576040517f08c379a0000000000000000000000000000000000000000000000000000000008152600401610d3e906134d9565b60405180910390fd5b610d518282612026565b5050565b6000604051806060016040528060218152602001613e6e60219139610d9a7f000000000000000000000000000000000000000000000000000000000000000033611820565b8190610ddc576040517f08c379a0000000000000000000000000000000000000000000000000000000008152600401610dd391906131b6565b60405180910390fd5b50600760003373ffffffffffffffffffffffffffffffffffffffff1673ffffffffffffffffffffffffffffffffffffffff1681526020019081526020016000205491505090565b6060600260009054906101000a900463ffffffff1663ffffffff1667ffffffffffffffff811115610e5757610e56612e08565b5b604051908082528060200260200182016040528015610e9057816020015b610e7d61258a565b815260200190600190039081610e755790505b50905060005b600260009054906101000a900463ffffffff1663ffffffff168110156111945760046000828152602001908152602001600020604051806101800160405290816000820154815260200160018201548152602001600282015481526020016003820154815260200160048201548152602001600582018054610f1790613436565b80601f0160208091040260200160405190810160405280929190818152602001828054610f4390613436565b8015610f905780601f10610f6557610100808354040283529160200191610f90565b820191906000526020600020905b815481529060010190602001808311610f7357829003601f168201915b50505050508152602001600682018054610fa990613436565b80601f0160208091040260200160405190810160405280929190818152602001828054610fd590613436565b80156110225780601f10610ff757610100808354040283529160200191611022565b820191906000526020600020905b81548152906001019060200180831161100557829003601f168201915b505050505081526020016007820160009054906101000a900460ff161515151581526020016007820160019054906101000a900460ff161515151581526020016007820160029054906101000a900473ffffffffffffffffffffffffffffffffffffffff1673ffffffffffffffffffffffffffffffffffffffff1673ffffffffffffffffffffffffffffffffffffffff1681526020016008820160009054906101000a900473ffffffffffffffffffffffffffffffffffffffff1673ffffffffffffffffffffffffffffffffffffffff1673ffffffffffffffffffffffffffffffffffffffff1681526020016009820160009054906101000a900473ffffffffffffffffffffffffffffffffffffffff1673ffffffffffffffffffffffffffffffffffffffff1673ffffffffffffffffffffffffffffffffffffffff1681525050828281518110611176576111756134f9565b5b6020026020010181905250808061118c90613528565b915050610e96565b5090565b60006040518060400160405280601f81526020017f556e617574686f72697a65643a206e6f742061207374616b65686f6c646572008152506111fa7f000000000000000000000000000000000000000000000000000000000000000033611820565b819061123c576040517f08c379a000000000000000000000000000000000000000000000000000000000815260040161123391906131b6565b60405180910390fd5b50600860003373ffffffffffffffffffffffffffffffffffffffff1673ffffffffffffffffffffffffffffffffffffffff1681526020019081526020016000205491505090565b604051806060016040528060328152602001613e8f603291396112c67f000000000000000000000000000000000000000000000000000000000000000033611820565b8190611308576040517f08c379a00000000000000000000000000000000000000000000000000000000081526004016112ff91906131b6565b60405180910390fd5b5060006002600081819054906101000a900463ffffffff168092919061132d90613580565b91906101000a81548163ffffffff021916908363ffffffff16021790555090506000600460008363ffffffff16815260200190815260200160002090508163ffffffff168160000181905550338160080160006101000a81548173ffffffffffffffffffffffffffffffffffffffff021916908373ffffffffffffffffffffffffffffffffffffffff160217905550868160050190816113cd9190613758565b50858160060190816113df9190613758565b50848160070160026101000a81548173ffffffffffffffffffffffffffffffffffffffff021916908373ffffffffffffffffffffffffffffffffffffffff1602179055508381600101819055507f000000000000000000000000000000000000000000000000000000000000000063ffffffff164261145e919061382a565b81600201819055508473ffffffffffffffffffffffffffffffffffffffff163373ffffffffffffffffffffffffffffffffffffffff167fa596782d699d74613fcbf59d33e720baabd313d6be9c95e2268f305430305eb77f0000000000000000000000000000000000000000000000000000000000000000876040516114e59291906138aa565b60405180910390a350505050505050565b6114fe612631565b604051806060016040528060308152602001613e3e603091396115417f000000000000000000000000000000000000000000000000000000000000000033611820565b8190611583576040517f08c379a000000000000000000000000000000000000000000000000000000000815260040161157a91906131b6565b60405180910390fd5b5060006004600086815260200190815260200160002090506115a481612108565b83156115c9578060030160008154809291906115bf90613528565b91905055506115e4565b8060040160008154809291906115de90613528565b91905055505b600560003373ffffffffffffffffffffffffffffffffffffffff1673ffffffffffffffffffffffffffffffffffffffff16815260200190815260200160002081600001549080600181540180825580915050600190039060005260206000200160009091909190915055600660008260000154815260200190815260200160002060405180606001604052803373ffffffffffffffffffffffffffffffffffffffff168152602001428152602001861515815250908060018154018082558091505060019003906000526020600020906003020160009091909190915060008201518160000160006101000a81548173ffffffffffffffffffffffffffffffffffffffff021916908373ffffffffffffffffffffffffffffffffffffffff1602179055506020820151816001015560408201518160020160006101000a81548160ff02191690831515021790555050508060070160029054906101000a900473ffffffffffffffffffffffffffffffffffffffff1673ffffffffffffffffffffffffffffffffffffffff163373ffffffffffffffffffffffffffffffffffffffff167fa596782d699d74613fcbf59d33e720baabd313d6be9c95e2268f305430305eb77f000000000000000000000000000000000000000000000000000000000000000084600101546040516117db929190613932565b60405180910390a360405180606001604052803373ffffffffffffffffffffffffffffffffffffffff1681526020014281526020018515158152509250505092915050565b60006001600084815260200190815260200160002060000160008373ffffffffffffffffffffffffffffffffffffffff1673ffffffffffffffffffffffffffffffffffffffff16815260200190815260200160002060009054906101000a900460ff16905092915050565b6000801b81565b60606040518060400160405280601f81526020017f556e617574686f72697a65643a206e6f742061207374616b65686f6c646572008152506118f47f000000000000000000000000000000000000000000000000000000000000000033611820565b8190611936576040517f08c379a000000000000000000000000000000000000000000000000000000000815260040161192d91906131b6565b60405180910390fd5b50600560003373ffffffffffffffffffffffffffffffffffffffff1673ffffffffffffffffffffffffffffffffffffffff1681526020019081526020016000208054806020026020016040519081016040528092919081815260200182805480156119c057602002820191906000526020600020905b8154815260200190600101908083116119ac575b505050505091505090565b60035481565b600080600860003373ffffffffffffffffffffffffffffffffffffffff1673ffffffffffffffffffffffffffffffffffffffff1681526020019081526020016000205411905090565b611a23826109d5565b611a2c81611f2a565b611a368383612026565b505050565b600080600760003373ffffffffffffffffffffffffffffffffffffffff1673ffffffffffffffffffffffffffffffffffffffff1681526020019081526020016000205411905090565b60003411611ac7576040517f08c379a0000000000000000000000000000000000000000000000000000000008152600401611abe906139ba565b60405180910390fd5b611af17f000000000000000000000000000000000000000000000000000000000000000033611820565b611c6057600034600760003373ffffffffffffffffffffffffffffffffffffffff1673ffffffffffffffffffffffffffffffffffffffff16815260200190815260200160002054611b42919061382a565b90507f00000000000000000000000000000000000000000000000000000000000000008110611bda5780600860003373ffffffffffffffffffffffffffffffffffffffff1673ffffffffffffffffffffffffffffffffffffffff16815260200190815260200160002081905550611bd97f000000000000000000000000000000000000000000000000000000000000000033611f3e565b5b34600760003373ffffffffffffffffffffffffffffffffffffffff1673ffffffffffffffffffffffffffffffffffffffff1681526020019081526020016000206000828254611c29919061382a565b92505081905550611c5a7f000000000000000000000000000000000000000000000000000000000000000033611f3e565b50611d0d565b34600760003373ffffffffffffffffffffffffffffffffffffffff1673ffffffffffffffffffffffffffffffffffffffff1681526020019081526020016000206000828254611caf919061382a565b9250508190555034600860003373ffffffffffffffffffffffffffffffffffffffff1673ffffffffffffffffffffffffffffffffffffffff1681526020019081526020016000206000828254611d05919061382a565b925050819055505b3460036000828254611d1f919061382a565b925050819055503073ffffffffffffffffffffffffffffffffffffffff163373ffffffffffffffffffffffffffffffffffffffff167fa596782d699d74613fcbf59d33e720baabd313d6be9c95e2268f305430305eb77f000000000000000000000000000000000000000000000000000000000000000034604051611da5929190613a26565b60405180910390a3565b60007f01ffc9a7000000000000000000000000000000000000000000000000000000007bffffffffffffffffffffffffffffffffffffffffffffffffffffffff1916827bffffffffffffffffffffffffffffffffffffffffffffffffffffffff1916149050919050565b600260005403611e5e576040517f08c379a0000000000000000000000000000000000000000000000000000000008152600401611e5590613aae565b60405180910390fd5b6002600081905550565b6000808373ffffffffffffffffffffffffffffffffffffffff1683604051611e8f90613aff565b60006040518083038185875af1925050503d8060008114611ecc576040519150601f19603f3d011682016040523d82523d6000602084013e611ed1565b606091505b5050905080611f15576040517f08c379a0000000000000000000000000000000000000000000000000000000008152600401611f0c90613b60565b60405180910390fd5b600191505092915050565b6001600081905550565b611f3b81611f3661201e565b61229c565b50565b611f488282611820565b61201a57600180600084815260200190815260200160002060000160008373ffffffffffffffffffffffffffffffffffffffff1673ffffffffffffffffffffffffffffffffffffffff16815260200190815260200160002060006101000a81548160ff021916908315150217905550611fbf61201e565b73ffffffffffffffffffffffffffffffffffffffff168173ffffffffffffffffffffffffffffffffffffffff16837f2f8788117e7eff1d82e926ec794901d17c78024a50270940304540a733656f0d60405160405180910390a45b5050565b600033905090565b6120308282611820565b156121045760006001600084815260200190815260200160002060000160008373ffffffffffffffffffffffffffffffffffffffff1673ffffffffffffffffffffffffffffffffffffffff16815260200190815260200160002060006101000a81548160ff0219169083151502179055506120a961201e565b73ffffffffffffffffffffffffffffffffffffffff168173ffffffffffffffffffffffffffffffffffffffff16837ff6391f5c32d9c69d2a47ea670b442974b53935d1edc7fd64eb21e047a839171b60405160405180910390a45b5050565b8060070160009054906101000a900460ff1680612129575042816002015411155b156121865760018160070160006101000a81548160ff0219169083151502179055506040517f08c379a000000000000000000000000000000000000000000000000000000000815260040161217d90613bcc565b60405180910390fd5b6000600560003373ffffffffffffffffffffffffffffffffffffffff1673ffffffffffffffffffffffffffffffffffffffff16815260200190815260200160002080548060200260200160405190810160405280929190818152602001828054801561221157602002820191906000526020600020905b8154815260200190600101908083116121fd575b5050505050905060005b815181101561229757818181518110612237576122366134f9565b5b6020026020010151836000015403612284576040517f08c379a000000000000000000000000000000000000000000000000000000000815260040161227b90613c38565b60405180910390fd5b808061228f90613528565b91505061221b565b505050565b6122a68282611820565b61231d576122b381612321565b6122c18360001c602061234e565b6040516020016122d2929190613d2c565b6040516020818303038152906040526040517f08c379a000000000000000000000000000000000000000000000000000000000815260040161231491906131b6565b60405180910390fd5b5050565b60606123478273ffffffffffffffffffffffffffffffffffffffff16601460ff1661234e565b9050919050565b6060600060028360026123619190613d66565b61236b919061382a565b67ffffffffffffffff81111561238457612383612e08565b5b6040519080825280601f01601f1916602001820160405280156123b65781602001600182028036833780820191505090505b5090507f3000000000000000000000000000000000000000000000000000000000000000816000815181106123ee576123ed6134f9565b5b60200101907effffffffffffffffffffffffffffffffffffffffffffffffffffffffffffff1916908160001a9053507f780000000000000000000000000000000000000000000000000000000000000081600181518110612452576124516134f9565b5b60200101907effffffffffffffffffffffffffffffffffffffffffffffffffffffffffffff1916908160001a905350600060018460026124929190613d66565b61249c919061382a565b90505b600181111561253c577f3031323334353637383961626364656600000000000000000000000000000000600f8616601081106124de576124dd6134f9565b5b1a60f81b8282815181106124f5576124f46134f9565b5b60200101907effffffffffffffffffffffffffffffffffffffffffffffffffffffffffffff1916908160001a905350600485901c94508061253590613da8565b905061249f565b5060008414612580576040517f08c379a000000000000000000000000000000000000000000000000000000000815260040161257790613e1d565b60405180910390fd5b8091505092915050565b60405180610180016040528060008152602001600081526020016000815260200160008152602001600081526020016060815260200160608152602001600015158152602001600015158152602001600073ffffffffffffffffffffffffffffffffffffffff168152602001600073ffffffffffffffffffffffffffffffffffffffff168152602001600073ffffffffffffffffffffffffffffffffffffffff1681525090565b6040518060600160405280600073ffffffffffffffffffffffffffffffffffffffff168152602001600081526020016000151581525090565b6000604051905090565b600080fd5b600080fd5b60007fffffffff0000000000000000000000000000000000000000000000000000000082169050919050565b6126b38161267e565b81146126be57600080fd5b50565b6000813590506126d0816126aa565b92915050565b6000602082840312156126ec576126eb612674565b5b60006126fa848285016126c1565b91505092915050565b60008115159050919050565b61271881612703565b82525050565b6000602082019050612733600083018461270f565b92915050565b6000819050919050565b61274c81612739565b811461275757600080fd5b50565b60008135905061276981612743565b92915050565b60006020828403121561278557612784612674565b5b60006127938482850161275a565b91505092915050565b600081519050919050565b600082825260208201905092915050565b6000819050602082019050919050565b600073ffffffffffffffffffffffffffffffffffffffff82169050919050565b60006127f3826127c8565b9050919050565b612803816127e8565b82525050565b61281281612739565b82525050565b61282181612703565b82525050565b60608201600082015161283d60008501826127fa565b5060208201516128506020850182612809565b5060408201516128636040850182612818565b50505050565b60006128758383612827565b60608301905092915050565b6000602082019050919050565b60006128998261279c565b6128a381856127a7565b93506128ae836127b8565b8060005b838110156128df5781516128c68882612869565b97506128d183612881565b9250506001810190506128b2565b5085935050505092915050565b60006020820190508181036000830152612906818461288e565b905092915050565b61291781612739565b82525050565b6000602082019050612932600083018461290e565b92915050565b6000819050919050565b61294b81612938565b811461295657600080fd5b50565b60008135905061296881612942565b92915050565b60006020828403121561298457612983612674565b5b600061299284828501612959565b91505092915050565b6129a481612938565b82525050565b60006020820190506129bf600083018461299b565b92915050565b600081519050919050565b600082825260208201905092915050565b60005b838110156129ff5780820151818401526020810190506129e4565b60008484015250505050565b6000601f19601f8301169050919050565b6000612a27826129c5565b612a3181856129d0565b9350612a418185602086016129e1565b612a4a81612a0b565b840191505092915050565b6000612a60826127c8565b9050919050565b612a7081612a55565b82525050565b600061018083016000830151612a8f6000860182612809565b506020830151612aa26020860182612809565b506040830151612ab56040860182612809565b506060830151612ac86060860182612809565b506080830151612adb6080860182612809565b5060a083015184820360a0860152612af38282612a1c565b91505060c083015184820360c0860152612b0d8282612a1c565b91505060e0830151612b2260e0860182612818565b50610100830151612b37610100860182612818565b50610120830151612b4c610120860182612a67565b50610140830151612b616101408601826127fa565b50610160830151612b766101608601826127fa565b508091505092915050565b60006020820190508181036000830152612b9b8184612a76565b905092915050565b612bac816127e8565b8114612bb757600080fd5b50565b600081359050612bc981612ba3565b92915050565b60008060408385031215612be657612be5612674565b5b6000612bf485828601612959565b9250506020612c0585828601612bba565b9150509250929050565b600081519050919050565b600082825260208201905092915050565b6000819050602082019050919050565b600061018083016000830151612c546000860182612809565b506020830151612c676020860182612809565b506040830151612c7a6040860182612809565b506060830151612c8d6060860182612809565b506080830151612ca06080860182612809565b5060a083015184820360a0860152612cb88282612a1c565b91505060c083015184820360c0860152612cd28282612a1c565b91505060e0830151612ce760e0860182612818565b50610100830151612cfc610100860182612818565b50610120830151612d11610120860182612a67565b50610140830151612d266101408601826127fa565b50610160830151612d3b6101608601826127fa565b508091505092915050565b6000612d528383612c3b565b905092915050565b6000602082019050919050565b6000612d7282612c0f565b612d7c8185612c1a565b935083602082028501612d8e85612c2b565b8060005b85811015612dca5784840389528151612dab8582612d46565b9450612db683612d5a565b925060208a01995050600181019050612d92565b50829750879550505050505092915050565b60006020820190508181036000830152612df68184612d67565b905092915050565b600080fd5b600080fd5b7f4e487b7100000000000000000000000000000000000000000000000000000000600052604160045260246000fd5b612e4082612a0b565b810181811067ffffffffffffffff82111715612e5f57612e5e612e08565b5b80604052505050565b6000612e7261266a565b9050612e7e8282612e37565b919050565b600067ffffffffffffffff821115612e9e57612e9d612e08565b5b612ea782612a0b565b9050602081019050919050565b82818337600083830152505050565b6000612ed6612ed184612e83565b612e68565b905082815260208101848484011115612ef257612ef1612e03565b5b612efd848285612eb4565b509392505050565b600082601f830112612f1a57612f19612dfe565b5b8135612f2a848260208601612ec3565b91505092915050565b60008060008060808587031215612f4d57612f4c612674565b5b600085013567ffffffffffffffff811115612f6b57612f6a612679565b5b612f7787828801612f05565b945050602085013567ffffffffffffffff811115612f9857612f97612679565b5b612fa487828801612f05565b9350506040612fb587828801612bba565b9250506060612fc68782880161275a565b91505092959194509250565b612fdb81612703565b8114612fe657600080fd5b50565b600081359050612ff881612fd2565b92915050565b6000806040838503121561301557613014612674565b5b60006130238582860161275a565b925050602061303485828601612fe9565b9150509250929050565b60608201600082015161305460008501826127fa565b5060208201516130676020850182612809565b50604082015161307a6040850182612818565b50505050565b6000606082019050613095600083018461303e565b92915050565b600081519050919050565b600082825260208201905092915050565b6000819050602082019050919050565b60006130d38383612809565b60208301905092915050565b6000602082019050919050565b60006130f78261309b565b61310181856130a6565b935061310c836130b7565b8060005b8381101561313d57815161312488826130c7565b975061312f836130df565b925050600181019050613110565b5085935050505092915050565b6000602082019050818103600083015261316481846130ec565b905092915050565b600082825260208201905092915050565b6000613188826129c5565b613192818561316c565b93506131a28185602086016129e1565b6131ab81612a0b565b840191505092915050565b600060208201905081810360008301526131d0818461317d565b905092915050565b7f496e73756666696369656e742066756e64000000000000000000000000000000600082015250565b600061320e60118361316c565b9150613219826131d8565b602082019050919050565b6000602082019050818103600083015261323d81613201565b9050919050565b7f5061796d656e74206d61646520616c7265616479000000000000000000000000600082015250565b600061327a60148361316c565b915061328582613244565b602082019050919050565b600060208201905081810360008301526132a98161326d565b9050919050565b7f496e73756666696369656e7420766f7465730000000000000000000000000000600082015250565b60006132e660128361316c565b91506132f1826132b0565b602082019050919050565b60006020820190508181036000830152613315816132d9565b9050919050565b7f4e487b7100000000000000000000000000000000000000000000000000000000600052601160045260246000fd5b600061335682612739565b915061336183612739565b92508282039050818111156133795761337861331c565b5b92915050565b7f5041594d454e54205452414e5346455245440000000000000000000000000000600082015250565b60006133b560128361316c565b91506133c08261337f565b602082019050919050565b60006060820190506133e0600083018561299b565b81810360208301526133f1816133a8565b9050613400604083018461290e565b9392505050565b7f4e487b7100000000000000000000000000000000000000000000000000000000600052602260045260246000fd5b6000600282049050600182168061344e57607f821691505b60208210810361346157613460613407565b5b50919050565b7f416363657373436f6e74726f6c3a2063616e206f6e6c792072656e6f756e636560008201527f20726f6c657320666f722073656c660000000000000000000000000000000000602082015250565b60006134c3602f8361316c565b91506134ce82613467565b604082019050919050565b600060208201905081810360008301526134f2816134b6565b9050919050565b7f4e487b7100000000000000000000000000000000000000000000000000000000600052603260045260246000fd5b600061353382612739565b91507fffffffffffffffffffffffffffffffffffffffffffffffffffffffffffffffff82036135655761356461331c565b5b600182019050919050565b600063ffffffff82169050919050565b600061358b82613570565b915063ffffffff82036135a1576135a061331c565b5b600182019050919050565b60008190508160005260206000209050919050565b60006020601f8301049050919050565b600082821b905092915050565b60006008830261360e7fffffffffffffffffffffffffffffffffffffffffffffffffffffffffffffffff826135d1565b61361886836135d1565b95508019841693508086168417925050509392505050565b6000819050919050565b600061365561365061364b84612739565b613630565b612739565b9050919050565b6000819050919050565b61366f8361363a565b61368361367b8261365c565b8484546135de565b825550505050565b600090565b61369861368b565b6136a3818484613666565b505050565b5b818110156136c7576136bc600082613690565b6001810190506136a9565b5050565b601f82111561370c576136dd816135ac565b6136e6846135c1565b810160208510156136f5578190505b613709613701856135c1565b8301826136a8565b50505b505050565b600082821c905092915050565b600061372f60001984600802613711565b1980831691505092915050565b6000613748838361371e565b9150826002028217905092915050565b613761826129c5565b67ffffffffffffffff81111561377a57613779612e08565b5b6137848254613436565b61378f8282856136cb565b600060209050601f8311600181146137c257600084156137b0578287015190505b6137ba858261373c565b865550613822565b601f1984166137d0866135ac565b60005b828110156137f8578489015182556001820191506020850194506020810190506137d3565b868310156138155784890151613811601f89168261371e565b8355505b6001600288020188555050505b505050505050565b600061383582612739565b915061384083612739565b92508282019050808211156138585761385761331c565b5b92915050565b7f50524f504f53414c205241495345440000000000000000000000000000000000600082015250565b6000613894600f8361316c565b915061389f8261385e565b602082019050919050565b60006060820190506138bf600083018561299b565b81810360208301526138d081613887565b90506138df604083018461290e565b9392505050565b7f50524f504f53414c20564f544500000000000000000000000000000000000000600082015250565b600061391c600d8361316c565b9150613927826138e6565b602082019050919050565b6000606082019050613947600083018561299b565b81810360208301526139588161390f565b9050613967604083018461290e565b9392505050565b7f4d757374206265206d6f7265207468616e203020657468657200000000000000600082015250565b60006139a460198361316c565b91506139af8261396e565b602082019050919050565b600060208201905081810360008301526139d381613997565b9050919050565b7f434f4e545249425554494f4e2052454345495645440000000000000000000000600082015250565b6000613a1060158361316c565b9150613a1b826139da565b602082019050919050565b6000606082019050613a3b600083018561299b565b8181036020830152613a4c81613a03565b9050613a5b604083018461290e565b9392505050565b7f5265656e7472616e637947756172643a207265656e7472616e742063616c6c00600082015250565b6000613a98601f8361316c565b9150613aa382613a62565b602082019050919050565b60006020820190508181036000830152613ac781613a8b565b9050919050565b600081905092915050565b50565b6000613ae9600083613ace565b9150613af482613ad9565b600082019050919050565b6000613b0a82613adc565b9150819050919050565b7f5061796d656e74206661696c6564000000000000000000000000000000000000600082015250565b6000613b4a600e8361316c565b9150613b5582613b14565b602082019050919050565b60006020820190508181036000830152613b7981613b3d565b9050919050565b7f70726f706f73616c206475726174696f6e206578706972656400000000000000600082015250565b6000613bb660198361316c565b9150613bc182613b80565b602082019050919050565b60006020820190508181036000830152613be581613ba9565b9050919050565b7f446f75626c6520766f74696e67206e6f7420616c6c6f77656400000000000000600082015250565b6000613c2260198361316c565b9150613c2d82613bec565b602082019050919050565b60006020820190508181036000830152613c5181613c15565b9050919050565b600081905092915050565b7f416363657373436f6e74726f6c3a206163636f756e7420000000000000000000600082015250565b6000613c99601783613c58565b9150613ca482613c63565b601782019050919050565b6000613cba826129c5565b613cc48185613c58565b9350613cd48185602086016129e1565b80840191505092915050565b7f206973206d697373696e6720726f6c6520000000000000000000000000000000600082015250565b6000613d16601183613c58565b9150613d2182613ce0565b601182019050919050565b6000613d3782613c8c565b9150613d438285613caf565b9150613d4e82613d09565b9150613d5a8284613caf565b91508190509392505050565b6000613d7182612739565b9150613d7c83612739565b9250828202613d8a81612739565b91508282048414831517613da157613da061331c565b5b5092915050565b6000613db382612739565b915060008203613dc657613dc561331c565b5b600182039050919050565b7f537472696e67733a20686578206c656e67746820696e73756666696369656e74600082015250565b6000613e0760208361316c565b9150613e1282613dd1565b602082019050919050565b60006020820190508181036000830152613e3681613dfa565b905091905056fe556e617574686f72697a6564206163636573733a205374616b65686f6c64657273206f6e6c79207065726d697474656444656e6965643a2055736572206973206e6f74206120636f6e7472696275746f7270726f706f73616c206372656174696f6e20616c6c6f77656420666f7220746865207374616b65686f6c646572206f6e6c79a264697066735822122041006553152db49f579a95f580db4d228a04eec2fd25b5e53bcaf381f132553b64736f6c63430008110033",
  "linkReferences": {},
  "deployedLinkReferences": {}
}