{
  "_format": "hh-sol-artifact-1",
  "contractName": "DAO",
  "sourceName": "contracts/DAO.sol",
  "abi": [
    {
      "anonymous": false,
      "inputs": [
        {
          "indexed": true,
          "internalType": "address",
          "name": "initiator",
          "type": "address"
        },
        {
          "indexed": false,
          "internalType": "bytes32",
          "name": "role",
          "type": "bytes32"
        },
        {
          "indexed": false,
          "internalType": "string",
          "name": "message",
          "type": "string"
        },
        {
          "indexed": true,
          "internalType": "address",
          "name": "beneficiary",
          "type": "address"
        },
        {
          "indexed": false,
          "internalType": "uint256",
          "name": "amount",
          "type": "uint256"
        }
      ],
      "name": "Action",
      "type": "event"
    },
    {
      "anonymous": false,
      "inputs": [
        {
          "indexed": true,
          "internalType": "address",
          "name": "initiator",
          "type": "address"
        },
        {
          "indexed": false,
          "internalType": "bytes32",
          "name": "role",
          "type": "bytes32"
        },
        {
          "indexed": false,
          "internalType": "string",
          "name": "message",
          "type": "string"
        },
        {
          "indexed": true,
          "internalType": "address",
          "name": "beneficiary",
          "type": "address"
        },
        {
          "indexed": false,
          "internalType": "uint256",
          "name": "amount",
          "type": "uint256"
        },
        {
          "indexed": false,
          "internalType": "uint256",
          "name": "duration",
          "type": "uint256"
        },
        {
          "indexed": false,
          "internalType": "uint256",
          "name": "currentTime",
          "type": "uint256"
        }
      ],
      "name": "EventAction",
      "type": "event"
    },
    {
      "anonymous": false,
      "inputs": [
        {
          "indexed": true,
          "internalType": "bytes32",
          "name": "role",
          "type": "bytes32"
        },
        {
          "indexed": true,
          "internalType": "bytes32",
          "name": "previousAdminRole",
          "type": "bytes32"
        },
        {
          "indexed": true,
          "internalType": "bytes32",
          "name": "newAdminRole",
          "type": "bytes32"
        }
      ],
      "name": "RoleAdminChanged",
      "type": "event"
    },
    {
      "anonymous": false,
      "inputs": [
        {
          "indexed": true,
          "internalType": "bytes32",
          "name": "role",
          "type": "bytes32"
        },
        {
          "indexed": true,
          "internalType": "address",
          "name": "account",
          "type": "address"
        },
        {
          "indexed": true,
          "internalType": "address",
          "name": "sender",
          "type": "address"
        }
      ],
      "name": "RoleGranted",
      "type": "event"
    },
    {
      "anonymous": false,
      "inputs": [
        {
          "indexed": true,
          "internalType": "bytes32",
          "name": "role",
          "type": "bytes32"
        },
        {
          "indexed": true,
          "internalType": "address",
          "name": "account",
          "type": "address"
        },
        {
          "indexed": true,
          "internalType": "address",
          "name": "sender",
          "type": "address"
        }
      ],
      "name": "RoleRevoked",
      "type": "event"
    },
    {
      "inputs": [],
      "name": "DEFAULT_ADMIN_ROLE",
      "outputs": [
        {
          "internalType": "bytes32",
          "name": "",
          "type": "bytes32"
        }
      ],
      "stateMutability": "view",
      "type": "function"
    },
    {
      "inputs": [
        {
          "internalType": "uint256",
          "name": "proposalId",
          "type": "uint256"
        },
        {
          "internalType": "bool",
          "name": "chosen",
          "type": "bool"
        }
      ],
      "name": "Vote",
      "outputs": [
        {
          "components": [
            {
              "internalType": "address",
              "name": "voter",
              "type": "address"
            },
            {
              "internalType": "uint256",
              "name": "timestamp",
              "type": "uint256"
            },
            {
              "internalType": "bool",
              "name": "chosen",
              "type": "bool"
            }
          ],
          "internalType": "struct DAO.VotedStruct",
          "name": "",
          "type": "tuple"
        }
      ],
      "stateMutability": "nonpayable",
      "type": "function"
    },
    {
      "inputs": [],
      "name": "contribute",
      "outputs": [],
      "stateMutability": "payable",
      "type": "function"
    },
    {
      "inputs": [
        {
          "internalType": "string",
          "name": "title",
          "type": "string"
        },
        {
          "internalType": "string",
          "name": "description",
          "type": "string"
        },
        {
          "internalType": "address",
          "name": "beneficiary",
          "type": "address"
        },
        {
          "internalType": "uint256",
          "name": "amount",
          "type": "uint256"
        }
      ],
      "name": "createProposal",
      "outputs": [],
      "stateMutability": "nonpayable",
      "type": "function"
    },
    {
      "inputs": [],
      "name": "daoBalance",
      "outputs": [
        {
          "internalType": "uint256",
          "name": "",
          "type": "uint256"
        }
      ],
      "stateMutability": "view",
      "type": "function"
    },
    {
      "inputs": [],
      "name": "getBalance",
      "outputs": [
        {
          "internalType": "uint256",
          "name": "",
          "type": "uint256"
        }
      ],
      "stateMutability": "view",
      "type": "function"
    },
    {
      "inputs": [],
      "name": "getContributorBalance",
      "outputs": [
        {
          "internalType": "uint256",
          "name": "",
          "type": "uint256"
        }
      ],
      "stateMutability": "view",
      "type": "function"
    },
    {
      "inputs": [
        {
          "internalType": "uint256",
          "name": "proposalId",
          "type": "uint256"
        }
      ],
      "name": "getProposal",
      "outputs": [
        {
          "components": [
            {
              "internalType": "uint256",
              "name": "id",
              "type": "uint256"
            },
            {
              "internalType": "uint256",
              "name": "amount",
              "type": "uint256"
            },
            {
              "internalType": "uint256",
              "name": "duration",
              "type": "uint256"
            },
            {
              "internalType": "uint256",
              "name": "upvotes",
              "type": "uint256"
            },
            {
              "internalType": "uint256",
              "name": "downvotes",
              "type": "uint256"
            },
            {
              "internalType": "string",
              "name": "title",
              "type": "string"
            },
            {
              "internalType": "string",
              "name": "description",
              "type": "string"
            },
            {
              "internalType": "bool",
              "name": "passed",
              "type": "bool"
            },
            {
              "internalType": "bool",
              "name": "paid",
              "type": "bool"
            },
            {
              "internalType": "address payable",
              "name": "beneficiary",
              "type": "address"
            },
            {
              "internalType": "address",
              "name": "proposer",
              "type": "address"
            },
            {
              "internalType": "address",
              "name": "executor",
              "type": "address"
            }
          ],
          "internalType": "struct DAO.ProposalStruct",
          "name": "",
          "type": "tuple"
        }
      ],
      "stateMutability": "view",
      "type": "function"
    },
    {
      "inputs": [],
      "name": "getProposals",
      "outputs": [
        {
          "components": [
            {
              "internalType": "uint256",
              "name": "id",
              "type": "uint256"
            },
            {
              "internalType": "uint256",
              "name": "amount",
              "type": "uint256"
            },
            {
              "internalType": "uint256",
              "name": "duration",
              "type": "uint256"
            },
            {
              "internalType": "uint256",
              "name": "upvotes",
              "type": "uint256"
            },
            {
              "internalType": "uint256",
              "name": "downvotes",
              "type": "uint256"
            },
            {
              "internalType": "string",
              "name": "title",
              "type": "string"
            },
            {
              "internalType": "string",
              "name": "description",
              "type": "string"
            },
            {
              "internalType": "bool",
              "name": "passed",
              "type": "bool"
            },
            {
              "internalType": "bool",
              "name": "paid",
              "type": "bool"
            },
            {
              "internalType": "address payable",
              "name": "beneficiary",
              "type": "address"
            },
            {
              "internalType": "address",
              "name": "proposer",
              "type": "address"
            },
            {
              "internalType": "address",
              "name": "executor",
              "type": "address"
            }
          ],
          "internalType": "struct DAO.ProposalStruct[]",
          "name": "props",
          "type": "tuple[]"
        }
      ],
      "stateMutability": "view",
      "type": "function"
    },
    {
      "inputs": [
        {
          "internalType": "bytes32",
          "name": "role",
          "type": "bytes32"
        }
      ],
      "name": "getRoleAdmin",
      "outputs": [
        {
          "internalType": "bytes32",
          "name": "",
          "type": "bytes32"
        }
      ],
      "stateMutability": "view",
      "type": "function"
    },
    {
      "inputs": [],
      "name": "getStakeholderBalance",
      "outputs": [
        {
          "internalType": "uint256",
          "name": "",
          "type": "uint256"
        }
      ],
      "stateMutability": "view",
      "type": "function"
    },
    {
      "inputs": [],
      "name": "getStakeholderVotes",
      "outputs": [
        {
          "internalType": "uint256[]",
          "name": "",
          "type": "uint256[]"
        }
      ],
      "stateMutability": "view",
      "type": "function"
    },
    {
      "inputs": [
        {
          "internalType": "uint256",
          "name": "proposalId",
          "type": "uint256"
        }
      ],
      "name": "getVotesOf",
      "outputs": [
        {
          "components": [
            {
              "internalType": "address",
              "name": "voter",
              "type": "address"
            },
            {
              "internalType": "uint256",
              "name": "timestamp",
              "type": "uint256"
            },
            {
              "internalType": "bool",
              "name": "chosen",
              "type": "bool"
            }
          ],
          "internalType": "struct DAO.VotedStruct[]",
          "name": "",
          "type": "tuple[]"
        }
      ],
      "stateMutability": "view",
      "type": "function"
    },
    {
      "inputs": [
        {
          "internalType": "bytes32",
          "name": "role",
          "type": "bytes32"
        },
        {
          "internalType": "address",
          "name": "account",
          "type": "address"
        }
      ],
      "name": "grantRole",
      "outputs": [],
      "stateMutability": "nonpayable",
      "type": "function"
    },
    {
      "inputs": [
        {
          "internalType": "bytes32",
          "name": "role",
          "type": "bytes32"
        },
        {
          "internalType": "address",
          "name": "account",
          "type": "address"
        }
      ],
      "name": "hasRole",
      "outputs": [
        {
          "internalType": "bool",
          "name": "",
          "type": "bool"
        }
      ],
      "stateMutability": "view",
      "type": "function"
    },
    {
      "inputs": [],
      "name": "isContributor",
      "outputs": [
        {
          "internalType": "bool",
          "name": "",
          "type": "bool"
        }
      ],
      "stateMutability": "view",
      "type": "function"
    },
    {
      "inputs": [],
      "name": "isStakeholder",
      "outputs": [
        {
          "internalType": "bool",
          "name": "",
          "type": "bool"
        }
      ],
      "stateMutability": "view",
      "type": "function"
    },
    {
      "inputs": [
        {
          "internalType": "uint256",
          "name": "proposalId",
          "type": "uint256"
        }
      ],
      "name": "payBeneficiary",
      "outputs": [
        {
          "internalType": "uint256",
          "name": "",
          "type": "uint256"
        }
      ],
      "stateMutability": "nonpayable",
      "type": "function"
    },
    {
      "inputs": [
        {
          "internalType": "bytes32",
          "name": "role",
          "type": "bytes32"
        },
        {
          "internalType": "address",
          "name": "account",
          "type": "address"
        }
      ],
      "name": "renounceRole",
      "outputs": [],
      "stateMutability": "nonpayable",
      "type": "function"
    },
    {
      "inputs": [
        {
          "internalType": "bytes32",
          "name": "role",
          "type": "bytes32"
        },
        {
          "internalType": "address",
          "name": "account",
          "type": "address"
        }
      ],
      "name": "revokeRole",
      "outputs": [],
      "stateMutability": "nonpayable",
      "type": "function"
    },
    {
      "inputs": [
        {
          "internalType": "bytes4",
          "name": "interfaceId",
          "type": "bytes4"
        }
      ],
      "name": "supportsInterface",
      "outputs": [
        {
          "internalType": "bool",
          "name": "",
          "type": "bool"
        }
      ],
      "stateMutability": "view",
      "type": "function"
    }
  ],
  "bytecode": "0x6101006040527fa0bb1af1c90aa52ed052b92714ff0087008cc720049bf1af77cca2600b31e80c6080908152507ff4bb84e1768dd286358a736d195a0b228621173f655a73b89bf8b191ed0ba07d60a090815250670de0b6b3a764000060c09081525061025863ffffffff1660e09063ffffffff1681525034801561008357600080fd5b50600160008190555060805160a05160c05160e051613f41610112600039600061117201526000611b4e0152600081816105c20152818161085301528181610f1901528181610fe5015281816111fb01528181611268015281816114f50152818161161b01528181611ad401528181611bbc0152611d7f0152600081816109cc0152611c3d0152613f416000f3fe60806040526004361061012a5760003560e01c80637cdc2eb7116100ab578063bd9728161161006f578063bd9728161461041a578063c02146ac14610445578063c7f758a814610470578063d547741f146104ad578063d6cc8016146104d6578063d7bb99ba146105015761012a565b80637cdc2eb7146103215780638bfa1f401461034a57806391d1485414610387578063a217fddf146103c4578063a22f1db7146103ef5761012a565b806336568abe116100f257806336568abe1461023a5780633cdb48c21461026357806362564c481461028e57806369a136dc146102b95780636a80d84d146102f65761012a565b806301ffc9a71461012f578063119c37c81461016c57806312065fe0146101a9578063248a9ca3146101d45780632f2ff15d14610211575b600080fd5b34801561013b57600080fd5b50610156600480360381019061015191906126de565b61050b565b6040516101639190612726565b60405180910390f35b34801561017857600080fd5b50610193600480360381019061018e9190612777565b610585565b6040516101a091906127b3565b60405180910390f35b3480156101b557600080fd5b506101be6108a1565b6040516101cb91906127b3565b60405180910390f35b3480156101e057600080fd5b506101fb60048036038101906101f69190612804565b6108e8565b6040516102089190612840565b60405180910390f35b34801561021d57600080fd5b50610238600480360381019061023391906128b9565b610908565b005b34801561024657600080fd5b50610261600480360381019061025c91906128b9565b610929565b005b34801561026f57600080fd5b506102786109ac565b60405161028591906127b3565b60405180910390f35b34801561029a57600080fd5b506102a3610a7a565b6040516102b09190612ba4565b60405180910390f35b3480156102c557600080fd5b506102e060048036038101906102db9190612777565b610def565b6040516102ed9190612cb7565b60405180910390f35b34801561030257600080fd5b5061030b610edc565b60405161031891906127b3565b60405180910390f35b34801561032d57600080fd5b5061034860048036038101906103439190612e0e565b610fc7565b005b34801561035657600080fd5b50610371600480360381019061036c9190612ed9565b611242565b60405161037e9190612f5b565b60405180910390f35b34801561039357600080fd5b506103ae60048036038101906103a991906128b9565b61156c565b6040516103bb9190612726565b60405180910390f35b3480156103d057600080fd5b506103d96115d7565b6040516103e69190612840565b60405180910390f35b3480156103fb57600080fd5b506104046115de565b6040516104119190613025565b60405180910390f35b34801561042657600080fd5b5061042f611717565b60405161043c91906127b3565b60405180910390f35b34801561045157600080fd5b5061045a61171d565b6040516104679190612726565b60405180910390f35b34801561047c57600080fd5b5061049760048036038101906104929190612777565b611766565b6040516104a49190613152565b60405180910390f35b3480156104b957600080fd5b506104d460048036038101906104cf91906128b9565b611a22565b005b3480156104e257600080fd5b506104eb611a43565b6040516104f89190612726565b60405180910390f35b610509611a8c565b005b60007f7965db0b000000000000000000000000000000000000000000000000000000007bffffffffffffffffffffffffffffffffffffffffffffffffffffffff1916827bffffffffffffffffffffffffffffffffffffffffffffffffffffffff1916148061057e575061057d82611db7565b5b9050919050565b60006040518060400160405280601f81526020017f556e617574686f72697a65643a205374616b65686f6c64657273206f6e6c79008152506105e77f00000000000000000000000000000000000000000000000000000000000000003361156c565b8190610629576040517f08c379a000000000000000000000000000000000000000000000000000000000815260040161062091906131be565b60405180910390fd5b50610632611e21565b600060046000858152602001908152602001600020905080600101546003541015610692576040517f08c379a00000000000000000000000000000000000000000000000000000000081526004016106899061322c565b60405180910390fd5b8060070160019054906101000a900460ff16156106e4576040517f08c379a00000000000000000000000000000000000000000000000000000000081526004016106db90613298565b60405180910390fd5b806004015481600301541161072e576040517f08c379a000000000000000000000000000000000000000000000000000000000815260040161072590613304565b60405180910390fd5b60018160070160016101000a81548160ff021916908315150217905550338160090160006101000a81548173ffffffffffffffffffffffffffffffffffffffff021916908373ffffffffffffffffffffffffffffffffffffffff1602179055508060010154600360008282546107a49190613353565b925050819055506107dd8160070160029054906101000a900473ffffffffffffffffffffffffffffffffffffffff168260010154611e70565b508060070160029054906101000a900473ffffffffffffffffffffffffffffffffffffffff1673ffffffffffffffffffffffffffffffffffffffff163373ffffffffffffffffffffffffffffffffffffffff167fa596782d699d74613fcbf59d33e720baabd313d6be9c95e2268f305430305eb77f000000000000000000000000000000000000000000000000000000000000000084600101546040516108859291906133d3565b60405180910390a360035492505061089b611f28565b50919050565b6000600760003373ffffffffffffffffffffffffffffffffffffffff1673ffffffffffffffffffffffffffffffffffffffff16815260200190815260200160002054905090565b600060016000838152602001908152602001600020600101549050919050565b610911826108e8565b61091a81611f32565b6109248383611f46565b505050565b610931612026565b73ffffffffffffffffffffffffffffffffffffffff168173ffffffffffffffffffffffffffffffffffffffff161461099e576040517f08c379a000000000000000000000000000000000000000000000000000000000815260040161099590613481565b60405180910390fd5b6109a8828261202e565b5050565b6000604051806060016040528060218152602001613eb8602191396109f17f00000000000000000000000000000000000000000000000000000000000000003361156c565b8190610a33576040517f08c379a0000000000000000000000000000000000000000000000000000000008152600401610a2a91906131be565b60405180910390fd5b50600760003373ffffffffffffffffffffffffffffffffffffffff1673ffffffffffffffffffffffffffffffffffffffff1681526020019081526020016000205491505090565b6060600260009054906101000a900463ffffffff1663ffffffff1667ffffffffffffffff811115610aae57610aad612ce3565b5b604051908082528060200260200182016040528015610ae757816020015b610ad4612592565b815260200190600190039081610acc5790505b50905060005b600260009054906101000a900463ffffffff1663ffffffff16811015610deb5760046000828152602001908152602001600020604051806101800160405290816000820154815260200160018201548152602001600282015481526020016003820154815260200160048201548152602001600582018054610b6e906134d0565b80601f0160208091040260200160405190810160405280929190818152602001828054610b9a906134d0565b8015610be75780601f10610bbc57610100808354040283529160200191610be7565b820191906000526020600020905b815481529060010190602001808311610bca57829003601f168201915b50505050508152602001600682018054610c00906134d0565b80601f0160208091040260200160405190810160405280929190818152602001828054610c2c906134d0565b8015610c795780601f10610c4e57610100808354040283529160200191610c79565b820191906000526020600020905b815481529060010190602001808311610c5c57829003601f168201915b505050505081526020016007820160009054906101000a900460ff161515151581526020016007820160019054906101000a900460ff161515151581526020016007820160029054906101000a900473ffffffffffffffffffffffffffffffffffffffff1673ffffffffffffffffffffffffffffffffffffffff1673ffffffffffffffffffffffffffffffffffffffff1681526020016008820160009054906101000a900473ffffffffffffffffffffffffffffffffffffffff1673ffffffffffffffffffffffffffffffffffffffff1673ffffffffffffffffffffffffffffffffffffffff1681526020016009820160009054906101000a900473ffffffffffffffffffffffffffffffffffffffff1673ffffffffffffffffffffffffffffffffffffffff1673ffffffffffffffffffffffffffffffffffffffff1681525050828281518110610dcd57610dcc613501565b5b60200260200101819052508080610de390613530565b915050610aed565b5090565b606060066000838152602001908152602001600020805480602002602001604051908101604052809291908181526020016000905b82821015610ed157838290600052602060002090600302016040518060600160405290816000820160009054906101000a900473ffffffffffffffffffffffffffffffffffffffff1673ffffffffffffffffffffffffffffffffffffffff1673ffffffffffffffffffffffffffffffffffffffff168152602001600182015481526020016002820160009054906101000a900460ff16151515158152505081526020019060010190610e24565b505050509050919050565b60006040518060400160405280601f81526020017f556e617574686f72697a65643a206e6f742061207374616b65686f6c64657200815250610f3e7f00000000000000000000000000000000000000000000000000000000000000003361156c565b8190610f80576040517f08c379a0000000000000000000000000000000000000000000000000000000008152600401610f7791906131be565b60405180910390fd5b50600860003373ffffffffffffffffffffffffffffffffffffffff1673ffffffffffffffffffffffffffffffffffffffff1681526020019081526020016000205491505090565b604051806060016040528060338152602001613ed96033913961100a7f00000000000000000000000000000000000000000000000000000000000000003361156c565b819061104c576040517f08c379a000000000000000000000000000000000000000000000000000000000815260040161104391906131be565b60405180910390fd5b5060006002600081819054906101000a900463ffffffff168092919061107190613588565b91906101000a81548163ffffffff021916908363ffffffff16021790555090506000600460008363ffffffff16815260200190815260200160002090508163ffffffff168160000181905550338160080160006101000a81548173ffffffffffffffffffffffffffffffffffffffff021916908373ffffffffffffffffffffffffffffffffffffffff160217905550868160050190816111119190613760565b50858160060190816111239190613760565b50848160070160026101000a81548173ffffffffffffffffffffffffffffffffffffffff021916908373ffffffffffffffffffffffffffffffffffffffff1602179055508381600101819055507f000000000000000000000000000000000000000000000000000000000000000063ffffffff16426111a29190613832565b81600201819055508473ffffffffffffffffffffffffffffffffffffffff163373ffffffffffffffffffffffffffffffffffffffff167fa47d8a66a308a22145c9d51ae8345dfb23b2f2175dcffacf7b54830524e5de817f00000000000000000000000000000000000000000000000000000000000000008785600201544260405161123194939291906138b2565b60405180910390a350505050505050565b61124a612639565b604051806060016040528060308152602001613e886030913961128d7f00000000000000000000000000000000000000000000000000000000000000003361156c565b81906112cf576040517f08c379a00000000000000000000000000000000000000000000000000000000081526004016112c691906131be565b60405180910390fd5b5060006004600086815260200190815260200160002090506112f081612110565b83156113155780600301600081548092919061130b90613530565b9190505550611330565b80600401600081548092919061132a90613530565b91905055505b600560003373ffffffffffffffffffffffffffffffffffffffff1673ffffffffffffffffffffffffffffffffffffffff16815260200190815260200160002081600001549080600181540180825580915050600190039060005260206000200160009091909190915055600660008260000154815260200190815260200160002060405180606001604052803373ffffffffffffffffffffffffffffffffffffffff168152602001428152602001861515815250908060018154018082558091505060019003906000526020600020906003020160009091909190915060008201518160000160006101000a81548173ffffffffffffffffffffffffffffffffffffffff021916908373ffffffffffffffffffffffffffffffffffffffff1602179055506020820151816001015560408201518160020160006101000a81548160ff02191690831515021790555050508060070160029054906101000a900473ffffffffffffffffffffffffffffffffffffffff1673ffffffffffffffffffffffffffffffffffffffff163373ffffffffffffffffffffffffffffffffffffffff167fa596782d699d74613fcbf59d33e720baabd313d6be9c95e2268f305430305eb77f00000000000000000000000000000000000000000000000000000000000000008460010154604051611527929190613956565b60405180910390a360405180606001604052803373ffffffffffffffffffffffffffffffffffffffff1681526020014281526020018515158152509250505092915050565b60006001600084815260200190815260200160002060000160008373ffffffffffffffffffffffffffffffffffffffff1673ffffffffffffffffffffffffffffffffffffffff16815260200190815260200160002060009054906101000a900460ff16905092915050565b6000801b81565b60606040518060400160405280601f81526020017f556e617574686f72697a65643a206e6f742061207374616b65686f6c646572008152506116407f00000000000000000000000000000000000000000000000000000000000000003361156c565b8190611682576040517f08c379a000000000000000000000000000000000000000000000000000000000815260040161167991906131be565b60405180910390fd5b50600560003373ffffffffffffffffffffffffffffffffffffffff1673ffffffffffffffffffffffffffffffffffffffff16815260200190815260200160002080548060200260200160405190810160405280929190818152602001828054801561170c57602002820191906000526020600020905b8154815260200190600101908083116116f8575b505050505091505090565b60035481565b600080600860003373ffffffffffffffffffffffffffffffffffffffff1673ffffffffffffffffffffffffffffffffffffffff1681526020019081526020016000205411905090565b61176e612592565b600460008381526020019081526020016000206040518061018001604052908160008201548152602001600182015481526020016002820154815260200160038201548152602001600482015481526020016005820180546117cf906134d0565b80601f01602080910402602001604051908101604052809291908181526020018280546117fb906134d0565b80156118485780601f1061181d57610100808354040283529160200191611848565b820191906000526020600020905b81548152906001019060200180831161182b57829003601f168201915b50505050508152602001600682018054611861906134d0565b80601f016020809104026020016040519081016040528092919081815260200182805461188d906134d0565b80156118da5780601f106118af576101008083540402835291602001916118da565b820191906000526020600020905b8154815290600101906020018083116118bd57829003601f168201915b505050505081526020016007820160009054906101000a900460ff161515151581526020016007820160019054906101000a900460ff161515151581526020016007820160029054906101000a900473ffffffffffffffffffffffffffffffffffffffff1673ffffffffffffffffffffffffffffffffffffffff1673ffffffffffffffffffffffffffffffffffffffff1681526020016008820160009054906101000a900473ffffffffffffffffffffffffffffffffffffffff1673ffffffffffffffffffffffffffffffffffffffff1673ffffffffffffffffffffffffffffffffffffffff1681526020016009820160009054906101000a900473ffffffffffffffffffffffffffffffffffffffff1673ffffffffffffffffffffffffffffffffffffffff1673ffffffffffffffffffffffffffffffffffffffff16815250509050919050565b611a2b826108e8565b611a3481611f32565b611a3e838361202e565b505050565b600080600760003373ffffffffffffffffffffffffffffffffffffffff1673ffffffffffffffffffffffffffffffffffffffff1681526020019081526020016000205411905090565b60003411611acf576040517f08c379a0000000000000000000000000000000000000000000000000000000008152600401611ac690613a04565b60405180910390fd5b611af97f00000000000000000000000000000000000000000000000000000000000000003361156c565b611c6857600034600760003373ffffffffffffffffffffffffffffffffffffffff1673ffffffffffffffffffffffffffffffffffffffff16815260200190815260200160002054611b4a9190613832565b90507f00000000000000000000000000000000000000000000000000000000000000008110611be25780600860003373ffffffffffffffffffffffffffffffffffffffff1673ffffffffffffffffffffffffffffffffffffffff16815260200190815260200160002081905550611be17f000000000000000000000000000000000000000000000000000000000000000033611f46565b5b34600760003373ffffffffffffffffffffffffffffffffffffffff1673ffffffffffffffffffffffffffffffffffffffff1681526020019081526020016000206000828254611c319190613832565b92505081905550611c627f000000000000000000000000000000000000000000000000000000000000000033611f46565b50611d15565b34600760003373ffffffffffffffffffffffffffffffffffffffff1673ffffffffffffffffffffffffffffffffffffffff1681526020019081526020016000206000828254611cb79190613832565b9250508190555034600860003373ffffffffffffffffffffffffffffffffffffffff1673ffffffffffffffffffffffffffffffffffffffff1681526020019081526020016000206000828254611d0d9190613832565b925050819055505b3460036000828254611d279190613832565b925050819055503073ffffffffffffffffffffffffffffffffffffffff163373ffffffffffffffffffffffffffffffffffffffff167fa596782d699d74613fcbf59d33e720baabd313d6be9c95e2268f305430305eb77f000000000000000000000000000000000000000000000000000000000000000034604051611dad929190613a70565b60405180910390a3565b60007f01ffc9a7000000000000000000000000000000000000000000000000000000007bffffffffffffffffffffffffffffffffffffffffffffffffffffffff1916827bffffffffffffffffffffffffffffffffffffffffffffffffffffffff1916149050919050565b600260005403611e66576040517f08c379a0000000000000000000000000000000000000000000000000000000008152600401611e5d90613af8565b60405180910390fd5b6002600081905550565b6000808373ffffffffffffffffffffffffffffffffffffffff1683604051611e9790613b49565b60006040518083038185875af1925050503d8060008114611ed4576040519150601f19603f3d011682016040523d82523d6000602084013e611ed9565b606091505b5050905080611f1d576040517f08c379a0000000000000000000000000000000000000000000000000000000008152600401611f1490613baa565b60405180910390fd5b600191505092915050565b6001600081905550565b611f4381611f3e612026565b6122a4565b50565b611f50828261156c565b61202257600180600084815260200190815260200160002060000160008373ffffffffffffffffffffffffffffffffffffffff1673ffffffffffffffffffffffffffffffffffffffff16815260200190815260200160002060006101000a81548160ff021916908315150217905550611fc7612026565b73ffffffffffffffffffffffffffffffffffffffff168173ffffffffffffffffffffffffffffffffffffffff16837f2f8788117e7eff1d82e926ec794901d17c78024a50270940304540a733656f0d60405160405180910390a45b5050565b600033905090565b612038828261156c565b1561210c5760006001600084815260200190815260200160002060000160008373ffffffffffffffffffffffffffffffffffffffff1673ffffffffffffffffffffffffffffffffffffffff16815260200190815260200160002060006101000a81548160ff0219169083151502179055506120b1612026565b73ffffffffffffffffffffffffffffffffffffffff168173ffffffffffffffffffffffffffffffffffffffff16837ff6391f5c32d9c69d2a47ea670b442974b53935d1edc7fd64eb21e047a839171b60405160405180910390a45b5050565b8060070160009054906101000a900460ff1680612131575042816002015411155b1561218e5760018160070160006101000a81548160ff0219169083151502179055506040517f08c379a000000000000000000000000000000000000000000000000000000000815260040161218590613c16565b60405180910390fd5b6000600560003373ffffffffffffffffffffffffffffffffffffffff1673ffffffffffffffffffffffffffffffffffffffff16815260200190815260200160002080548060200260200160405190810160405280929190818152602001828054801561221957602002820191906000526020600020905b815481526020019060010190808311612205575b5050505050905060005b815181101561229f5781818151811061223f5761223e613501565b5b602002602001015183600001540361228c576040517f08c379a000000000000000000000000000000000000000000000000000000000815260040161228390613c82565b60405180910390fd5b808061229790613530565b915050612223565b505050565b6122ae828261156c565b612325576122bb81612329565b6122c98360001c6020612356565b6040516020016122da929190613d76565b6040516020818303038152906040526040517f08c379a000000000000000000000000000000000000000000000000000000000815260040161231c91906131be565b60405180910390fd5b5050565b606061234f8273ffffffffffffffffffffffffffffffffffffffff16601460ff16612356565b9050919050565b6060600060028360026123699190613db0565b6123739190613832565b67ffffffffffffffff81111561238c5761238b612ce3565b5b6040519080825280601f01601f1916602001820160405280156123be5781602001600182028036833780820191505090505b5090507f3000000000000000000000000000000000000000000000000000000000000000816000815181106123f6576123f5613501565b5b60200101907effffffffffffffffffffffffffffffffffffffffffffffffffffffffffffff1916908160001a9053507f78000000000000000000000000000000000000000000000000000000000000008160018151811061245a57612459613501565b5b60200101907effffffffffffffffffffffffffffffffffffffffffffffffffffffffffffff1916908160001a9053506000600184600261249a9190613db0565b6124a49190613832565b90505b6001811115612544577f3031323334353637383961626364656600000000000000000000000000000000600f8616601081106124e6576124e5613501565b5b1a60f81b8282815181106124fd576124fc613501565b5b60200101907effffffffffffffffffffffffffffffffffffffffffffffffffffffffffffff1916908160001a905350600485901c94508061253d90613df2565b90506124a7565b5060008414612588576040517f08c379a000000000000000000000000000000000000000000000000000000000815260040161257f90613e67565b60405180910390fd5b8091505092915050565b60405180610180016040528060008152602001600081526020016000815260200160008152602001600081526020016060815260200160608152602001600015158152602001600015158152602001600073ffffffffffffffffffffffffffffffffffffffff168152602001600073ffffffffffffffffffffffffffffffffffffffff168152602001600073ffffffffffffffffffffffffffffffffffffffff1681525090565b6040518060600160405280600073ffffffffffffffffffffffffffffffffffffffff168152602001600081526020016000151581525090565b6000604051905090565b600080fd5b600080fd5b60007fffffffff0000000000000000000000000000000000000000000000000000000082169050919050565b6126bb81612686565b81146126c657600080fd5b50565b6000813590506126d8816126b2565b92915050565b6000602082840312156126f4576126f361267c565b5b6000612702848285016126c9565b91505092915050565b60008115159050919050565b6127208161270b565b82525050565b600060208201905061273b6000830184612717565b92915050565b6000819050919050565b61275481612741565b811461275f57600080fd5b50565b6000813590506127718161274b565b92915050565b60006020828403121561278d5761278c61267c565b5b600061279b84828501612762565b91505092915050565b6127ad81612741565b82525050565b60006020820190506127c860008301846127a4565b92915050565b6000819050919050565b6127e1816127ce565b81146127ec57600080fd5b50565b6000813590506127fe816127d8565b92915050565b60006020828403121561281a5761281961267c565b5b6000612828848285016127ef565b91505092915050565b61283a816127ce565b82525050565b60006020820190506128556000830184612831565b92915050565b600073ffffffffffffffffffffffffffffffffffffffff82169050919050565b60006128868261285b565b9050919050565b6128968161287b565b81146128a157600080fd5b50565b6000813590506128b38161288d565b92915050565b600080604083850312156128d0576128cf61267c565b5b60006128de858286016127ef565b92505060206128ef858286016128a4565b9150509250929050565b600081519050919050565b600082825260208201905092915050565b6000819050602082019050919050565b61292e81612741565b82525050565b600081519050919050565b600082825260208201905092915050565b60005b8381101561296e578082015181840152602081019050612953565b60008484015250505050565b6000601f19601f8301169050919050565b600061299682612934565b6129a0818561293f565b93506129b0818560208601612950565b6129b98161297a565b840191505092915050565b6129cd8161270b565b82525050565b60006129de8261285b565b9050919050565b6129ee816129d3565b82525050565b6129fd8161287b565b82525050565b600061018083016000830151612a1c6000860182612925565b506020830151612a2f6020860182612925565b506040830151612a426040860182612925565b506060830151612a556060860182612925565b506080830151612a686080860182612925565b5060a083015184820360a0860152612a80828261298b565b91505060c083015184820360c0860152612a9a828261298b565b91505060e0830151612aaf60e08601826129c4565b50610100830151612ac46101008601826129c4565b50610120830151612ad96101208601826129e5565b50610140830151612aee6101408601826129f4565b50610160830151612b036101608601826129f4565b508091505092915050565b6000612b1a8383612a03565b905092915050565b6000602082019050919050565b6000612b3a826128f9565b612b448185612904565b935083602082028501612b5685612915565b8060005b85811015612b925784840389528151612b738582612b0e565b9450612b7e83612b22565b925060208a01995050600181019050612b5a565b50829750879550505050505092915050565b60006020820190508181036000830152612bbe8184612b2f565b905092915050565b600081519050919050565b600082825260208201905092915050565b6000819050602082019050919050565b606082016000820151612c0860008501826129f4565b506020820151612c1b6020850182612925565b506040820151612c2e60408501826129c4565b50505050565b6000612c408383612bf2565b60608301905092915050565b6000602082019050919050565b6000612c6482612bc6565b612c6e8185612bd1565b9350612c7983612be2565b8060005b83811015612caa578151612c918882612c34565b9750612c9c83612c4c565b925050600181019050612c7d565b5085935050505092915050565b60006020820190508181036000830152612cd18184612c59565b905092915050565b600080fd5b600080fd5b7f4e487b7100000000000000000000000000000000000000000000000000000000600052604160045260246000fd5b612d1b8261297a565b810181811067ffffffffffffffff82111715612d3a57612d39612ce3565b5b80604052505050565b6000612d4d612672565b9050612d598282612d12565b919050565b600067ffffffffffffffff821115612d7957612d78612ce3565b5b612d828261297a565b9050602081019050919050565b82818337600083830152505050565b6000612db1612dac84612d5e565b612d43565b905082815260208101848484011115612dcd57612dcc612cde565b5b612dd8848285612d8f565b509392505050565b600082601f830112612df557612df4612cd9565b5b8135612e05848260208601612d9e565b91505092915050565b60008060008060808587031215612e2857612e2761267c565b5b600085013567ffffffffffffffff811115612e4657612e45612681565b5b612e5287828801612de0565b945050602085013567ffffffffffffffff811115612e7357612e72612681565b5b612e7f87828801612de0565b9350506040612e90878288016128a4565b9250506060612ea187828801612762565b91505092959194509250565b612eb68161270b565b8114612ec157600080fd5b50565b600081359050612ed381612ead565b92915050565b60008060408385031215612ef057612eef61267c565b5b6000612efe85828601612762565b9250506020612f0f85828601612ec4565b9150509250929050565b606082016000820151612f2f60008501826129f4565b506020820151612f426020850182612925565b506040820151612f5560408501826129c4565b50505050565b6000606082019050612f706000830184612f19565b92915050565b600081519050919050565b600082825260208201905092915050565b6000819050602082019050919050565b6000612fae8383612925565b60208301905092915050565b6000602082019050919050565b6000612fd282612f76565b612fdc8185612f81565b9350612fe783612f92565b8060005b83811015613018578151612fff8882612fa2565b975061300a83612fba565b925050600181019050612feb565b5085935050505092915050565b6000602082019050818103600083015261303f8184612fc7565b905092915050565b6000610180830160008301516130606000860182612925565b5060208301516130736020860182612925565b5060408301516130866040860182612925565b5060608301516130996060860182612925565b5060808301516130ac6080860182612925565b5060a083015184820360a08601526130c4828261298b565b91505060c083015184820360c08601526130de828261298b565b91505060e08301516130f360e08601826129c4565b506101008301516131086101008601826129c4565b5061012083015161311d6101208601826129e5565b506101408301516131326101408601826129f4565b506101608301516131476101608601826129f4565b508091505092915050565b6000602082019050818103600083015261316c8184613047565b905092915050565b600082825260208201905092915050565b600061319082612934565b61319a8185613174565b93506131aa818560208601612950565b6131b38161297a565b840191505092915050565b600060208201905081810360008301526131d88184613185565b905092915050565b7f496e73756666696369656e742066756e64000000000000000000000000000000600082015250565b6000613216601183613174565b9150613221826131e0565b602082019050919050565b6000602082019050818103600083015261324581613209565b9050919050565b7f5061796d656e742073656e74206265666f726500000000000000000000000000600082015250565b6000613282601383613174565b915061328d8261324c565b602082019050919050565b600060208201905081810360008301526132b181613275565b9050919050565b7f496e73756666696369656e7420766f7465730000000000000000000000000000600082015250565b60006132ee601283613174565b91506132f9826132b8565b602082019050919050565b6000602082019050818103600083015261331d816132e1565b9050919050565b7f4e487b7100000000000000000000000000000000000000000000000000000000600052601160045260246000fd5b600061335e82612741565b915061336983612741565b925082820390508181111561338157613380613324565b5b92915050565b7f5041594d454e54205452414e5346455245440000000000000000000000000000600082015250565b60006133bd601283613174565b91506133c882613387565b602082019050919050565b60006060820190506133e86000830185612831565b81810360208301526133f9816133b0565b905061340860408301846127a4565b9392505050565b7f416363657373436f6e74726f6c3a2063616e206f6e6c792072656e6f756e636560008201527f20726f6c657320666f722073656c660000000000000000000000000000000000602082015250565b600061346b602f83613174565b91506134768261340f565b604082019050919050565b6000602082019050818103600083015261349a8161345e565b9050919050565b7f4e487b7100000000000000000000000000000000000000000000000000000000600052602260045260246000fd5b600060028204905060018216806134e857607f821691505b6020821081036134fb576134fa6134a1565b5b50919050565b7f4e487b7100000000000000000000000000000000000000000000000000000000600052603260045260246000fd5b600061353b82612741565b91507fffffffffffffffffffffffffffffffffffffffffffffffffffffffffffffffff820361356d5761356c613324565b5b600182019050919050565b600063ffffffff82169050919050565b600061359382613578565b915063ffffffff82036135a9576135a8613324565b5b600182019050919050565b60008190508160005260206000209050919050565b60006020601f8301049050919050565b600082821b905092915050565b6000600883026136167fffffffffffffffffffffffffffffffffffffffffffffffffffffffffffffffff826135d9565b61362086836135d9565b95508019841693508086168417925050509392505050565b6000819050919050565b600061365d61365861365384612741565b613638565b612741565b9050919050565b6000819050919050565b61367783613642565b61368b61368382613664565b8484546135e6565b825550505050565b600090565b6136a0613693565b6136ab81848461366e565b505050565b5b818110156136cf576136c4600082613698565b6001810190506136b1565b5050565b601f821115613714576136e5816135b4565b6136ee846135c9565b810160208510156136fd578190505b613711613709856135c9565b8301826136b0565b50505b505050565b600082821c905092915050565b600061373760001984600802613719565b1980831691505092915050565b60006137508383613726565b9150826002028217905092915050565b61376982612934565b67ffffffffffffffff81111561378257613781612ce3565b5b61378c82546134d0565b6137978282856136d3565b600060209050601f8311600181146137ca57600084156137b8578287015190505b6137c28582613744565b86555061382a565b601f1984166137d8866135b4565b60005b82811015613800578489015182556001820191506020850194506020810190506137db565b8683101561381d5784890151613819601f891682613726565b8355505b6001600288020188555050505b505050505050565b600061383d82612741565b915061384883612741565b92508282019050808211156138605761385f613324565b5b92915050565b7f50524f504f53414c205241495345440000000000000000000000000000000000600082015250565b600061389c600f83613174565b91506138a782613866565b602082019050919050565b600060a0820190506138c76000830187612831565b81810360208301526138d88161388f565b90506138e760408301866127a4565b6138f460608301856127a4565b61390160808301846127a4565b95945050505050565b7f50524f504f53414c20564f544500000000000000000000000000000000000000600082015250565b6000613940600d83613174565b915061394b8261390a565b602082019050919050565b600060608201905061396b6000830185612831565b818103602083015261397c81613933565b905061398b60408301846127a4565b9392505050565b7f436f6e747269627574696e67207a65726f206973206e6f7420616c6c6f77656460008201527f2e00000000000000000000000000000000000000000000000000000000000000602082015250565b60006139ee602183613174565b91506139f982613992565b604082019050919050565b60006020820190508181036000830152613a1d816139e1565b9050919050565b7f434f4e545249425554494f4e2052454345495645440000000000000000000000600082015250565b6000613a5a601583613174565b9150613a6582613a24565b602082019050919050565b6000606082019050613a856000830185612831565b8181036020830152613a9681613a4d565b9050613aa560408301846127a4565b9392505050565b7f5265656e7472616e637947756172643a207265656e7472616e742063616c6c00600082015250565b6000613ae2601f83613174565b9150613aed82613aac565b602082019050919050565b60006020820190508181036000830152613b1181613ad5565b9050919050565b600081905092915050565b50565b6000613b33600083613b18565b9150613b3e82613b23565b600082019050919050565b6000613b5482613b26565b9150819050919050565b7f5061796d656e74206661696c6564000000000000000000000000000000000000600082015250565b6000613b94600e83613174565b9150613b9f82613b5e565b602082019050919050565b60006020820190508181036000830152613bc381613b87565b9050919050565b7f70726f706f73616c206475726174696f6e206578706972656400000000000000600082015250565b6000613c00601983613174565b9150613c0b82613bca565b602082019050919050565b60006020820190508181036000830152613c2f81613bf3565b9050919050565b7f446f75626c6520766f74696e67206e6f7420616c6c6f77656400000000000000600082015250565b6000613c6c601983613174565b9150613c7782613c36565b602082019050919050565b60006020820190508181036000830152613c9b81613c5f565b9050919050565b600081905092915050565b7f416363657373436f6e74726f6c3a206163636f756e7420000000000000000000600082015250565b6000613ce3601783613ca2565b9150613cee82613cad565b601782019050919050565b6000613d0482612934565b613d0e8185613ca2565b9350613d1e818560208601612950565b80840191505092915050565b7f206973206d697373696e6720726f6c6520000000000000000000000000000000600082015250565b6000613d60601183613ca2565b9150613d6b82613d2a565b601182019050919050565b6000613d8182613cd6565b9150613d8d8285613cf9565b9150613d9882613d53565b9150613da48284613cf9565b91508190509392505050565b6000613dbb82612741565b9150613dc683612741565b9250828202613dd481612741565b91508282048414831517613deb57613dea613324565b5b5092915050565b6000613dfd82612741565b915060008203613e1057613e0f613324565b5b600182039050919050565b7f537472696e67733a20686578206c656e67746820696e73756666696369656e74600082015250565b6000613e51602083613174565b9150613e5c82613e1b565b602082019050919050565b60006020820190508181036000830152613e8081613e44565b905091905056fe556e617574686f72697a6564206163636573733a205374616b65686f6c64657273206f6e6c79207065726d697474656444656e6965643a2055736572206973206e6f74206120636f6e7472696275746f7270726f706f73616c206372656174696f6e20616c6c6f77656420666f7220746865207374616b65686f6c64657273206f6e6c79a2646970667358221220f4d4e2a035be550708142816ec469fb8641b4428016258494d5e1510db347b1c64736f6c63430008110033",
  "linkReferences": {},
  "deployedLinkReferences": {}
}