{
  "_format": "hh-sol-artifact-1",
  "contractName": "DAO",
  "sourceName": "contracts/DAO.sol",
  "abi": [
    {
      "anonymous": false,
      "inputs": [
        {
          "indexed": true,
          "internalType": "address",
          "name": "initiator",
          "type": "address"
        },
        {
          "indexed": false,
          "internalType": "bytes32",
          "name": "role",
          "type": "bytes32"
        },
        {
          "indexed": false,
          "internalType": "string",
          "name": "message",
          "type": "string"
        },
        {
          "indexed": true,
          "internalType": "address",
          "name": "beneficiary",
          "type": "address"
        },
        {
          "indexed": false,
          "internalType": "uint256",
          "name": "amount",
          "type": "uint256"
        }
      ],
      "name": "Action",
      "type": "event"
    },
    {
      "anonymous": false,
      "inputs": [
        {
          "indexed": true,
          "internalType": "bytes32",
          "name": "role",
          "type": "bytes32"
        },
        {
          "indexed": true,
          "internalType": "bytes32",
          "name": "previousAdminRole",
          "type": "bytes32"
        },
        {
          "indexed": true,
          "internalType": "bytes32",
          "name": "newAdminRole",
          "type": "bytes32"
        }
      ],
      "name": "RoleAdminChanged",
      "type": "event"
    },
    {
      "anonymous": false,
      "inputs": [
        {
          "indexed": true,
          "internalType": "bytes32",
          "name": "role",
          "type": "bytes32"
        },
        {
          "indexed": true,
          "internalType": "address",
          "name": "account",
          "type": "address"
        },
        {
          "indexed": true,
          "internalType": "address",
          "name": "sender",
          "type": "address"
        }
      ],
      "name": "RoleGranted",
      "type": "event"
    },
    {
      "anonymous": false,
      "inputs": [
        {
          "indexed": true,
          "internalType": "bytes32",
          "name": "role",
          "type": "bytes32"
        },
        {
          "indexed": true,
          "internalType": "address",
          "name": "account",
          "type": "address"
        },
        {
          "indexed": true,
          "internalType": "address",
          "name": "sender",
          "type": "address"
        }
      ],
      "name": "RoleRevoked",
      "type": "event"
    },
    {
      "inputs": [],
      "name": "DEFAULT_ADMIN_ROLE",
      "outputs": [
        {
          "internalType": "bytes32",
          "name": "",
          "type": "bytes32"
        }
      ],
      "stateMutability": "view",
      "type": "function"
    },
    {
      "inputs": [
        {
          "internalType": "uint256",
          "name": "proposalId",
          "type": "uint256"
        },
        {
          "internalType": "bool",
          "name": "choosen",
          "type": "bool"
        }
      ],
      "name": "Vote",
      "outputs": [
        {
          "components": [
            {
              "internalType": "address",
              "name": "voter",
              "type": "address"
            },
            {
              "internalType": "uint256",
              "name": "timestamp",
              "type": "uint256"
            },
            {
              "internalType": "bool",
              "name": "chosen",
              "type": "bool"
            }
          ],
          "internalType": "struct DAO.VotedStruct",
          "name": "",
          "type": "tuple"
        }
      ],
      "stateMutability": "nonpayable",
      "type": "function"
    },
    {
      "inputs": [],
      "name": "contribute",
      "outputs": [],
      "stateMutability": "payable",
      "type": "function"
    },
    {
      "inputs": [
        {
          "internalType": "string",
          "name": "title",
          "type": "string"
        },
        {
          "internalType": "string",
          "name": "description",
          "type": "string"
        },
        {
          "internalType": "address",
          "name": "beneficiary",
          "type": "address"
        },
        {
          "internalType": "uint256",
          "name": "amount",
          "type": "uint256"
        }
      ],
      "name": "createProposal",
      "outputs": [],
      "stateMutability": "nonpayable",
      "type": "function"
    },
    {
      "inputs": [],
      "name": "daoBalance",
      "outputs": [
        {
          "internalType": "uint256",
          "name": "",
          "type": "uint256"
        }
      ],
      "stateMutability": "view",
      "type": "function"
    },
    {
      "inputs": [],
      "name": "getBalance",
      "outputs": [
        {
          "internalType": "uint256",
          "name": "",
          "type": "uint256"
        }
      ],
      "stateMutability": "view",
      "type": "function"
    },
    {
      "inputs": [],
      "name": "getContributorBalance",
      "outputs": [
        {
          "internalType": "uint256",
          "name": "",
          "type": "uint256"
        }
      ],
      "stateMutability": "view",
      "type": "function"
    },
    {
      "inputs": [
        {
          "internalType": "uint256",
          "name": "proposalId",
          "type": "uint256"
        }
      ],
      "name": "getProposal",
      "outputs": [
        {
          "components": [
            {
              "internalType": "uint256",
              "name": "id",
              "type": "uint256"
            },
            {
              "internalType": "uint256",
              "name": "amount",
              "type": "uint256"
            },
            {
              "internalType": "uint256",
              "name": "duration",
              "type": "uint256"
            },
            {
              "internalType": "uint256",
              "name": "upvotes",
              "type": "uint256"
            },
            {
              "internalType": "uint256",
              "name": "downvotes",
              "type": "uint256"
            },
            {
              "internalType": "string",
              "name": "title",
              "type": "string"
            },
            {
              "internalType": "string",
              "name": "description",
              "type": "string"
            },
            {
              "internalType": "bool",
              "name": "passed",
              "type": "bool"
            },
            {
              "internalType": "bool",
              "name": "paid",
              "type": "bool"
            },
            {
              "internalType": "address payable",
              "name": "beneficiary",
              "type": "address"
            },
            {
              "internalType": "address",
              "name": "proposer",
              "type": "address"
            },
            {
              "internalType": "address",
              "name": "executor",
              "type": "address"
            }
          ],
          "internalType": "struct DAO.ProposalStruct",
          "name": "",
          "type": "tuple"
        }
      ],
      "stateMutability": "view",
      "type": "function"
    },
    {
      "inputs": [],
      "name": "getProposals",
      "outputs": [
        {
          "components": [
            {
              "internalType": "uint256",
              "name": "id",
              "type": "uint256"
            },
            {
              "internalType": "uint256",
              "name": "amount",
              "type": "uint256"
            },
            {
              "internalType": "uint256",
              "name": "duration",
              "type": "uint256"
            },
            {
              "internalType": "uint256",
              "name": "upvotes",
              "type": "uint256"
            },
            {
              "internalType": "uint256",
              "name": "downvotes",
              "type": "uint256"
            },
            {
              "internalType": "string",
              "name": "title",
              "type": "string"
            },
            {
              "internalType": "string",
              "name": "description",
              "type": "string"
            },
            {
              "internalType": "bool",
              "name": "passed",
              "type": "bool"
            },
            {
              "internalType": "bool",
              "name": "paid",
              "type": "bool"
            },
            {
              "internalType": "address payable",
              "name": "beneficiary",
              "type": "address"
            },
            {
              "internalType": "address",
              "name": "proposer",
              "type": "address"
            },
            {
              "internalType": "address",
              "name": "executor",
              "type": "address"
            }
          ],
          "internalType": "struct DAO.ProposalStruct[]",
          "name": "proposals",
          "type": "tuple[]"
        }
      ],
      "stateMutability": "view",
      "type": "function"
    },
    {
      "inputs": [
        {
          "internalType": "bytes32",
          "name": "role",
          "type": "bytes32"
        }
      ],
      "name": "getRoleAdmin",
      "outputs": [
        {
          "internalType": "bytes32",
          "name": "",
          "type": "bytes32"
        }
      ],
      "stateMutability": "view",
      "type": "function"
    },
    {
      "inputs": [],
      "name": "getStakeholderBalance",
      "outputs": [
        {
          "internalType": "uint256",
          "name": "",
          "type": "uint256"
        }
      ],
      "stateMutability": "view",
      "type": "function"
    },
    {
      "inputs": [],
      "name": "getStakeholderVotes",
      "outputs": [
        {
          "internalType": "uint256[]",
          "name": "",
          "type": "uint256[]"
        }
      ],
      "stateMutability": "view",
      "type": "function"
    },
    {
      "inputs": [
        {
          "internalType": "uint256",
          "name": "proposalId",
          "type": "uint256"
        }
      ],
      "name": "getVoteOf",
      "outputs": [
        {
          "components": [
            {
              "internalType": "address",
              "name": "voter",
              "type": "address"
            },
            {
              "internalType": "uint256",
              "name": "timestamp",
              "type": "uint256"
            },
            {
              "internalType": "bool",
              "name": "chosen",
              "type": "bool"
            }
          ],
          "internalType": "struct DAO.VotedStruct[]",
          "name": "",
          "type": "tuple[]"
        }
      ],
      "stateMutability": "view",
      "type": "function"
    },
    {
      "inputs": [
        {
          "internalType": "bytes32",
          "name": "role",
          "type": "bytes32"
        },
        {
          "internalType": "address",
          "name": "account",
          "type": "address"
        }
      ],
      "name": "grantRole",
      "outputs": [],
      "stateMutability": "nonpayable",
      "type": "function"
    },
    {
      "inputs": [
        {
          "internalType": "bytes32",
          "name": "role",
          "type": "bytes32"
        },
        {
          "internalType": "address",
          "name": "account",
          "type": "address"
        }
      ],
      "name": "hasRole",
      "outputs": [
        {
          "internalType": "bool",
          "name": "",
          "type": "bool"
        }
      ],
      "stateMutability": "view",
      "type": "function"
    },
    {
      "inputs": [],
      "name": "isContributor",
      "outputs": [
        {
          "internalType": "bool",
          "name": "",
          "type": "bool"
        }
      ],
      "stateMutability": "view",
      "type": "function"
    },
    {
      "inputs": [],
      "name": "isStakeholder",
      "outputs": [
        {
          "internalType": "bool",
          "name": "",
          "type": "bool"
        }
      ],
      "stateMutability": "view",
      "type": "function"
    },
    {
      "inputs": [
        {
          "internalType": "uint256",
          "name": "proposalId",
          "type": "uint256"
        }
      ],
      "name": "payBeneficiary",
      "outputs": [
        {
          "internalType": "uint256",
          "name": "",
          "type": "uint256"
        }
      ],
      "stateMutability": "nonpayable",
      "type": "function"
    },
    {
      "inputs": [
        {
          "internalType": "bytes32",
          "name": "role",
          "type": "bytes32"
        },
        {
          "internalType": "address",
          "name": "account",
          "type": "address"
        }
      ],
      "name": "renounceRole",
      "outputs": [],
      "stateMutability": "nonpayable",
      "type": "function"
    },
    {
      "inputs": [
        {
          "internalType": "bytes32",
          "name": "role",
          "type": "bytes32"
        },
        {
          "internalType": "address",
          "name": "account",
          "type": "address"
        }
      ],
      "name": "revokeRole",
      "outputs": [],
      "stateMutability": "nonpayable",
      "type": "function"
    },
    {
      "inputs": [
        {
          "internalType": "bytes4",
          "name": "interfaceId",
          "type": "bytes4"
        }
      ],
      "name": "supportsInterface",
      "outputs": [
        {
          "internalType": "bool",
          "name": "",
          "type": "bool"
        }
      ],
      "stateMutability": "view",
      "type": "function"
    }
  ],
  "bytecode": "0x6101006040527fa0bb1af1c90aa52ed052b92714ff0087008cc720049bf1af77cca2600b31e80c6080908152507ff4bb84e1768dd286358a736d195a0b228621173f655a73b89bf8b191ed0ba07d60a090815250670de0b6b3a764000060c09081525061025863ffffffff1660e09063ffffffff1681525034801561008357600080fd5b50600160008190555060805160a05160c05160e051613ef6610112600039600061117201526000611b460152600081816106af0152818161094001528181610f1901528181610fe5015281816111fb01528181611260015281816114ed0152818161161301528181611acc01528181611bb40152611d77015260008181610ab90152611c350152613ef66000f3fe60806040526004361061012a5760003560e01c80637cdc2eb7116100ab578063bd9728161161006f578063bd9728161461041a578063c02146ac14610445578063c7f758a814610470578063d547741f146104ad578063d6cc8016146104d6578063d7bb99ba146105015761012a565b80637cdc2eb7146103215780638bfa1f401461034a57806391d1485414610387578063a217fddf146103c4578063a22f1db7146103ef5761012a565b80632f2ff15d116100f25780632f2ff15d1461024e57806336568abe146102775780633cdb48c2146102a057806362564c48146102cb5780636a80d84d146102f65761012a565b806301ffc9a71461012f57806302d779541461016c578063119c37c8146101a957806312065fe0146101e6578063248a9ca314610211575b600080fd5b34801561013b57600080fd5b50610156600480360381019061015191906126d6565b61050b565b604051610163919061271e565b60405180910390f35b34801561017857600080fd5b50610193600480360381019061018e919061276f565b610585565b6040516101a091906128ec565b60405180910390f35b3480156101b557600080fd5b506101d060048036038101906101cb919061276f565b610672565b6040516101dd919061291d565b60405180910390f35b3480156101f257600080fd5b506101fb61098e565b604051610208919061291d565b60405180910390f35b34801561021d57600080fd5b506102386004803603810190610233919061296e565b6109d5565b60405161024591906129aa565b60405180910390f35b34801561025a57600080fd5b50610275600480360381019061027091906129f1565b6109f5565b005b34801561028357600080fd5b5061029e600480360381019061029991906129f1565b610a16565b005b3480156102ac57600080fd5b506102b5610a99565b6040516102c2919061291d565b60405180910390f35b3480156102d757600080fd5b506102e0610b67565b6040516102ed9190612caf565b60405180910390f35b34801561030257600080fd5b5061030b610edc565b604051610318919061291d565b60405180910390f35b34801561032d57600080fd5b5061034860048036038101906103439190612e06565b610fc7565b005b34801561035657600080fd5b50610371600480360381019061036c9190612ed1565b61123a565b60405161037e9190612f53565b60405180910390f35b34801561039357600080fd5b506103ae60048036038101906103a991906129f1565b611564565b6040516103bb919061271e565b60405180910390f35b3480156103d057600080fd5b506103d96115cf565b6040516103e691906129aa565b60405180910390f35b3480156103fb57600080fd5b506104046115d6565b604051610411919061301d565b60405180910390f35b34801561042657600080fd5b5061042f61170f565b60405161043c919061291d565b60405180910390f35b34801561045157600080fd5b5061045a611715565b604051610467919061271e565b60405180910390f35b34801561047c57600080fd5b506104976004803603810190610492919061276f565b61175e565b6040516104a4919061314a565b60405180910390f35b3480156104b957600080fd5b506104d460048036038101906104cf91906129f1565b611a1a565b005b3480156104e257600080fd5b506104eb611a3b565b6040516104f8919061271e565b60405180910390f35b610509611a84565b005b60007f7965db0b000000000000000000000000000000000000000000000000000000007bffffffffffffffffffffffffffffffffffffffffffffffffffffffff1916827bffffffffffffffffffffffffffffffffffffffffffffffffffffffff1916148061057e575061057d82611daf565b5b9050919050565b606060066000838152602001908152602001600020805480602002602001604051908101604052809291908181526020016000905b8282101561066757838290600052602060002090600302016040518060600160405290816000820160009054906101000a900473ffffffffffffffffffffffffffffffffffffffff1673ffffffffffffffffffffffffffffffffffffffff1673ffffffffffffffffffffffffffffffffffffffff168152602001600182015481526020016002820160009054906101000a900460ff161515151581525050815260200190600101906105ba565b505050509050919050565b60006040518060400160405280601e81526020017f556e617574686f72697a65643a207374616b65686f6c646572206f6e6c7900008152506106d47f000000000000000000000000000000000000000000000000000000000000000033611564565b8190610716576040517f08c379a000000000000000000000000000000000000000000000000000000000815260040161070d91906131b6565b60405180910390fd5b5061071f611e19565b60006004600085815260200190815260200160002090508060010154600354101561077f576040517f08c379a000000000000000000000000000000000000000000000000000000000815260040161077690613224565b60405180910390fd5b8060070160019054906101000a900460ff16156107d1576040517f08c379a00000000000000000000000000000000000000000000000000000000081526004016107c890613290565b60405180910390fd5b806004015481600301541161081b576040517f08c379a0000000000000000000000000000000000000000000000000000000008152600401610812906132fc565b60405180910390fd5b60018160070160016101000a81548160ff021916908315150217905550338160090160006101000a81548173ffffffffffffffffffffffffffffffffffffffff021916908373ffffffffffffffffffffffffffffffffffffffff160217905550806001015460036000828254610891919061334b565b925050819055506108ca8160070160029054906101000a900473ffffffffffffffffffffffffffffffffffffffff168260010154611e68565b508060070160029054906101000a900473ffffffffffffffffffffffffffffffffffffffff1673ffffffffffffffffffffffffffffffffffffffff163373ffffffffffffffffffffffffffffffffffffffff167fa596782d699d74613fcbf59d33e720baabd313d6be9c95e2268f305430305eb77f000000000000000000000000000000000000000000000000000000000000000084600101546040516109729291906133cb565b60405180910390a3600354925050610988611f20565b50919050565b6000600760003373ffffffffffffffffffffffffffffffffffffffff1673ffffffffffffffffffffffffffffffffffffffff16815260200190815260200160002054905090565b600060016000838152602001908152602001600020600101549050919050565b6109fe826109d5565b610a0781611f2a565b610a118383611f3e565b505050565b610a1e61201e565b73ffffffffffffffffffffffffffffffffffffffff168173ffffffffffffffffffffffffffffffffffffffff1614610a8b576040517f08c379a0000000000000000000000000000000000000000000000000000000008152600401610a8290613479565b60405180910390fd5b610a958282612026565b5050565b6000604051806060016040528060218152602001613e6e60219139610ade7f000000000000000000000000000000000000000000000000000000000000000033611564565b8190610b20576040517f08c379a0000000000000000000000000000000000000000000000000000000008152600401610b1791906131b6565b60405180910390fd5b50600760003373ffffffffffffffffffffffffffffffffffffffff1673ffffffffffffffffffffffffffffffffffffffff1681526020019081526020016000205491505090565b6060600260009054906101000a900463ffffffff1663ffffffff1667ffffffffffffffff811115610b9b57610b9a612cdb565b5b604051908082528060200260200182016040528015610bd457816020015b610bc161258a565b815260200190600190039081610bb95790505b50905060005b600260009054906101000a900463ffffffff1663ffffffff16811015610ed85760046000828152602001908152602001600020604051806101800160405290816000820154815260200160018201548152602001600282015481526020016003820154815260200160048201548152602001600582018054610c5b906134c8565b80601f0160208091040260200160405190810160405280929190818152602001828054610c87906134c8565b8015610cd45780601f10610ca957610100808354040283529160200191610cd4565b820191906000526020600020905b815481529060010190602001808311610cb757829003601f168201915b50505050508152602001600682018054610ced906134c8565b80601f0160208091040260200160405190810160405280929190818152602001828054610d19906134c8565b8015610d665780601f10610d3b57610100808354040283529160200191610d66565b820191906000526020600020905b815481529060010190602001808311610d4957829003601f168201915b505050505081526020016007820160009054906101000a900460ff161515151581526020016007820160019054906101000a900460ff161515151581526020016007820160029054906101000a900473ffffffffffffffffffffffffffffffffffffffff1673ffffffffffffffffffffffffffffffffffffffff1673ffffffffffffffffffffffffffffffffffffffff1681526020016008820160009054906101000a900473ffffffffffffffffffffffffffffffffffffffff1673ffffffffffffffffffffffffffffffffffffffff1673ffffffffffffffffffffffffffffffffffffffff1681526020016009820160009054906101000a900473ffffffffffffffffffffffffffffffffffffffff1673ffffffffffffffffffffffffffffffffffffffff1673ffffffffffffffffffffffffffffffffffffffff1681525050828281518110610eba57610eb96134f9565b5b60200260200101819052508080610ed090613528565b915050610bda565b5090565b60006040518060400160405280601f81526020017f556e617574686f72697a65643a206e6f742061207374616b65686f6c64657200815250610f3e7f000000000000000000000000000000000000000000000000000000000000000033611564565b8190610f80576040517f08c379a0000000000000000000000000000000000000000000000000000000008152600401610f7791906131b6565b60405180910390fd5b50600860003373ffffffffffffffffffffffffffffffffffffffff1673ffffffffffffffffffffffffffffffffffffffff1681526020019081526020016000205491505090565b604051806060016040528060328152602001613e8f6032913961100a7f000000000000000000000000000000000000000000000000000000000000000033611564565b819061104c576040517f08c379a000000000000000000000000000000000000000000000000000000000815260040161104391906131b6565b60405180910390fd5b5060006002600081819054906101000a900463ffffffff168092919061107190613580565b91906101000a81548163ffffffff021916908363ffffffff16021790555090506000600460008363ffffffff16815260200190815260200160002090508163ffffffff168160000181905550338160080160006101000a81548173ffffffffffffffffffffffffffffffffffffffff021916908373ffffffffffffffffffffffffffffffffffffffff160217905550868160050190816111119190613758565b50858160060190816111239190613758565b50848160070160026101000a81548173ffffffffffffffffffffffffffffffffffffffff021916908373ffffffffffffffffffffffffffffffffffffffff1602179055508381600101819055507f000000000000000000000000000000000000000000000000000000000000000063ffffffff16426111a2919061382a565b81600201819055508473ffffffffffffffffffffffffffffffffffffffff163373ffffffffffffffffffffffffffffffffffffffff167fa596782d699d74613fcbf59d33e720baabd313d6be9c95e2268f305430305eb77f0000000000000000000000000000000000000000000000000000000000000000876040516112299291906138aa565b60405180910390a350505050505050565b611242612631565b604051806060016040528060308152602001613e3e603091396112857f000000000000000000000000000000000000000000000000000000000000000033611564565b81906112c7576040517f08c379a00000000000000000000000000000000000000000000000000000000081526004016112be91906131b6565b60405180910390fd5b5060006004600086815260200190815260200160002090506112e881612108565b831561130d5780600301600081548092919061130390613528565b9190505550611328565b80600401600081548092919061132290613528565b91905055505b600560003373ffffffffffffffffffffffffffffffffffffffff1673ffffffffffffffffffffffffffffffffffffffff16815260200190815260200160002081600001549080600181540180825580915050600190039060005260206000200160009091909190915055600660008260000154815260200190815260200160002060405180606001604052803373ffffffffffffffffffffffffffffffffffffffff168152602001428152602001861515815250908060018154018082558091505060019003906000526020600020906003020160009091909190915060008201518160000160006101000a81548173ffffffffffffffffffffffffffffffffffffffff021916908373ffffffffffffffffffffffffffffffffffffffff1602179055506020820151816001015560408201518160020160006101000a81548160ff02191690831515021790555050508060070160029054906101000a900473ffffffffffffffffffffffffffffffffffffffff1673ffffffffffffffffffffffffffffffffffffffff163373ffffffffffffffffffffffffffffffffffffffff167fa596782d699d74613fcbf59d33e720baabd313d6be9c95e2268f305430305eb77f0000000000000000000000000000000000000000000000000000000000000000846001015460405161151f929190613932565b60405180910390a360405180606001604052803373ffffffffffffffffffffffffffffffffffffffff1681526020014281526020018515158152509250505092915050565b60006001600084815260200190815260200160002060000160008373ffffffffffffffffffffffffffffffffffffffff1673ffffffffffffffffffffffffffffffffffffffff16815260200190815260200160002060009054906101000a900460ff16905092915050565b6000801b81565b60606040518060400160405280601f81526020017f556e617574686f72697a65643a206e6f742061207374616b65686f6c646572008152506116387f000000000000000000000000000000000000000000000000000000000000000033611564565b819061167a576040517f08c379a000000000000000000000000000000000000000000000000000000000815260040161167191906131b6565b60405180910390fd5b50600560003373ffffffffffffffffffffffffffffffffffffffff1673ffffffffffffffffffffffffffffffffffffffff16815260200190815260200160002080548060200260200160405190810160405280929190818152602001828054801561170457602002820191906000526020600020905b8154815260200190600101908083116116f0575b505050505091505090565b60035481565b600080600860003373ffffffffffffffffffffffffffffffffffffffff1673ffffffffffffffffffffffffffffffffffffffff1681526020019081526020016000205411905090565b61176661258a565b600460008381526020019081526020016000206040518061018001604052908160008201548152602001600182015481526020016002820154815260200160038201548152602001600482015481526020016005820180546117c7906134c8565b80601f01602080910402602001604051908101604052809291908181526020018280546117f3906134c8565b80156118405780601f1061181557610100808354040283529160200191611840565b820191906000526020600020905b81548152906001019060200180831161182357829003601f168201915b50505050508152602001600682018054611859906134c8565b80601f0160208091040260200160405190810160405280929190818152602001828054611885906134c8565b80156118d25780601f106118a7576101008083540402835291602001916118d2565b820191906000526020600020905b8154815290600101906020018083116118b557829003601f168201915b505050505081526020016007820160009054906101000a900460ff161515151581526020016007820160019054906101000a900460ff161515151581526020016007820160029054906101000a900473ffffffffffffffffffffffffffffffffffffffff1673ffffffffffffffffffffffffffffffffffffffff1673ffffffffffffffffffffffffffffffffffffffff1681526020016008820160009054906101000a900473ffffffffffffffffffffffffffffffffffffffff1673ffffffffffffffffffffffffffffffffffffffff1673ffffffffffffffffffffffffffffffffffffffff1681526020016009820160009054906101000a900473ffffffffffffffffffffffffffffffffffffffff1673ffffffffffffffffffffffffffffffffffffffff1673ffffffffffffffffffffffffffffffffffffffff16815250509050919050565b611a23826109d5565b611a2c81611f2a565b611a368383612026565b505050565b600080600760003373ffffffffffffffffffffffffffffffffffffffff1673ffffffffffffffffffffffffffffffffffffffff1681526020019081526020016000205411905090565b60003411611ac7576040517f08c379a0000000000000000000000000000000000000000000000000000000008152600401611abe906139ba565b60405180910390fd5b611af17f000000000000000000000000000000000000000000000000000000000000000033611564565b611c6057600034600760003373ffffffffffffffffffffffffffffffffffffffff1673ffffffffffffffffffffffffffffffffffffffff16815260200190815260200160002054611b42919061382a565b90507f00000000000000000000000000000000000000000000000000000000000000008110611bda5780600860003373ffffffffffffffffffffffffffffffffffffffff1673ffffffffffffffffffffffffffffffffffffffff16815260200190815260200160002081905550611bd97f000000000000000000000000000000000000000000000000000000000000000033611f3e565b5b34600760003373ffffffffffffffffffffffffffffffffffffffff1673ffffffffffffffffffffffffffffffffffffffff1681526020019081526020016000206000828254611c29919061382a565b92505081905550611c5a7f000000000000000000000000000000000000000000000000000000000000000033611f3e565b50611d0d565b34600760003373ffffffffffffffffffffffffffffffffffffffff1673ffffffffffffffffffffffffffffffffffffffff1681526020019081526020016000206000828254611caf919061382a565b9250508190555034600860003373ffffffffffffffffffffffffffffffffffffffff1673ffffffffffffffffffffffffffffffffffffffff1681526020019081526020016000206000828254611d05919061382a565b925050819055505b3460036000828254611d1f919061382a565b925050819055503073ffffffffffffffffffffffffffffffffffffffff163373ffffffffffffffffffffffffffffffffffffffff167fa596782d699d74613fcbf59d33e720baabd313d6be9c95e2268f305430305eb77f000000000000000000000000000000000000000000000000000000000000000034604051611da5929190613a26565b60405180910390a3565b60007f01ffc9a7000000000000000000000000000000000000000000000000000000007bffffffffffffffffffffffffffffffffffffffffffffffffffffffff1916827bffffffffffffffffffffffffffffffffffffffffffffffffffffffff1916149050919050565b600260005403611e5e576040517f08c379a0000000000000000000000000000000000000000000000000000000008152600401611e5590613aae565b60405180910390fd5b6002600081905550565b6000808373ffffffffffffffffffffffffffffffffffffffff1683604051611e8f90613aff565b60006040518083038185875af1925050503d8060008114611ecc576040519150601f19603f3d011682016040523d82523d6000602084013e611ed1565b606091505b5050905080611f15576040517f08c379a0000000000000000000000000000000000000000000000000000000008152600401611f0c90613b60565b60405180910390fd5b600191505092915050565b6001600081905550565b611f3b81611f3661201e565b61229c565b50565b611f488282611564565b61201a57600180600084815260200190815260200160002060000160008373ffffffffffffffffffffffffffffffffffffffff1673ffffffffffffffffffffffffffffffffffffffff16815260200190815260200160002060006101000a81548160ff021916908315150217905550611fbf61201e565b73ffffffffffffffffffffffffffffffffffffffff168173ffffffffffffffffffffffffffffffffffffffff16837f2f8788117e7eff1d82e926ec794901d17c78024a50270940304540a733656f0d60405160405180910390a45b5050565b600033905090565b6120308282611564565b156121045760006001600084815260200190815260200160002060000160008373ffffffffffffffffffffffffffffffffffffffff1673ffffffffffffffffffffffffffffffffffffffff16815260200190815260200160002060006101000a81548160ff0219169083151502179055506120a961201e565b73ffffffffffffffffffffffffffffffffffffffff168173ffffffffffffffffffffffffffffffffffffffff16837ff6391f5c32d9c69d2a47ea670b442974b53935d1edc7fd64eb21e047a839171b60405160405180910390a45b5050565b8060070160009054906101000a900460ff1680612129575042816002015411155b156121865760018160070160006101000a81548160ff0219169083151502179055506040517f08c379a000000000000000000000000000000000000000000000000000000000815260040161217d90613bcc565b60405180910390fd5b6000600560003373ffffffffffffffffffffffffffffffffffffffff1673ffffffffffffffffffffffffffffffffffffffff16815260200190815260200160002080548060200260200160405190810160405280929190818152602001828054801561221157602002820191906000526020600020905b8154815260200190600101908083116121fd575b5050505050905060005b815181101561229757818181518110612237576122366134f9565b5b6020026020010151836000015403612284576040517f08c379a000000000000000000000000000000000000000000000000000000000815260040161227b90613c38565b60405180910390fd5b808061228f90613528565b91505061221b565b505050565b6122a68282611564565b61231d576122b381612321565b6122c18360001c602061234e565b6040516020016122d2929190613d2c565b6040516020818303038152906040526040517f08c379a000000000000000000000000000000000000000000000000000000000815260040161231491906131b6565b60405180910390fd5b5050565b60606123478273ffffffffffffffffffffffffffffffffffffffff16601460ff1661234e565b9050919050565b6060600060028360026123619190613d66565b61236b919061382a565b67ffffffffffffffff81111561238457612383612cdb565b5b6040519080825280601f01601f1916602001820160405280156123b65781602001600182028036833780820191505090505b5090507f3000000000000000000000000000000000000000000000000000000000000000816000815181106123ee576123ed6134f9565b5b60200101907effffffffffffffffffffffffffffffffffffffffffffffffffffffffffffff1916908160001a9053507f780000000000000000000000000000000000000000000000000000000000000081600181518110612452576124516134f9565b5b60200101907effffffffffffffffffffffffffffffffffffffffffffffffffffffffffffff1916908160001a905350600060018460026124929190613d66565b61249c919061382a565b90505b600181111561253c577f3031323334353637383961626364656600000000000000000000000000000000600f8616601081106124de576124dd6134f9565b5b1a60f81b8282815181106124f5576124f46134f9565b5b60200101907effffffffffffffffffffffffffffffffffffffffffffffffffffffffffffff1916908160001a905350600485901c94508061253590613da8565b905061249f565b5060008414612580576040517f08c379a000000000000000000000000000000000000000000000000000000000815260040161257790613e1d565b60405180910390fd5b8091505092915050565b60405180610180016040528060008152602001600081526020016000815260200160008152602001600081526020016060815260200160608152602001600015158152602001600015158152602001600073ffffffffffffffffffffffffffffffffffffffff168152602001600073ffffffffffffffffffffffffffffffffffffffff168152602001600073ffffffffffffffffffffffffffffffffffffffff1681525090565b6040518060600160405280600073ffffffffffffffffffffffffffffffffffffffff168152602001600081526020016000151581525090565b6000604051905090565b600080fd5b600080fd5b60007fffffffff0000000000000000000000000000000000000000000000000000000082169050919050565b6126b38161267e565b81146126be57600080fd5b50565b6000813590506126d0816126aa565b92915050565b6000602082840312156126ec576126eb612674565b5b60006126fa848285016126c1565b91505092915050565b60008115159050919050565b61271881612703565b82525050565b6000602082019050612733600083018461270f565b92915050565b6000819050919050565b61274c81612739565b811461275757600080fd5b50565b60008135905061276981612743565b92915050565b60006020828403121561278557612784612674565b5b60006127938482850161275a565b91505092915050565b600081519050919050565b600082825260208201905092915050565b6000819050602082019050919050565b600073ffffffffffffffffffffffffffffffffffffffff82169050919050565b60006127f3826127c8565b9050919050565b612803816127e8565b82525050565b61281281612739565b82525050565b61282181612703565b82525050565b60608201600082015161283d60008501826127fa565b5060208201516128506020850182612809565b5060408201516128636040850182612818565b50505050565b60006128758383612827565b60608301905092915050565b6000602082019050919050565b60006128998261279c565b6128a381856127a7565b93506128ae836127b8565b8060005b838110156128df5781516128c68882612869565b97506128d183612881565b9250506001810190506128b2565b5085935050505092915050565b60006020820190508181036000830152612906818461288e565b905092915050565b61291781612739565b82525050565b6000602082019050612932600083018461290e565b92915050565b6000819050919050565b61294b81612938565b811461295657600080fd5b50565b60008135905061296881612942565b92915050565b60006020828403121561298457612983612674565b5b600061299284828501612959565b91505092915050565b6129a481612938565b82525050565b60006020820190506129bf600083018461299b565b92915050565b6129ce816127e8565b81146129d957600080fd5b50565b6000813590506129eb816129c5565b92915050565b60008060408385031215612a0857612a07612674565b5b6000612a1685828601612959565b9250506020612a27858286016129dc565b9150509250929050565b600081519050919050565b600082825260208201905092915050565b6000819050602082019050919050565b600081519050919050565b600082825260208201905092915050565b60005b83811015612a97578082015181840152602081019050612a7c565b60008484015250505050565b6000601f19601f8301169050919050565b6000612abf82612a5d565b612ac98185612a68565b9350612ad9818560208601612a79565b612ae281612aa3565b840191505092915050565b6000612af8826127c8565b9050919050565b612b0881612aed565b82525050565b600061018083016000830151612b276000860182612809565b506020830151612b3a6020860182612809565b506040830151612b4d6040860182612809565b506060830151612b606060860182612809565b506080830151612b736080860182612809565b5060a083015184820360a0860152612b8b8282612ab4565b91505060c083015184820360c0860152612ba58282612ab4565b91505060e0830151612bba60e0860182612818565b50610100830151612bcf610100860182612818565b50610120830151612be4610120860182612aff565b50610140830151612bf96101408601826127fa565b50610160830151612c0e6101608601826127fa565b508091505092915050565b6000612c258383612b0e565b905092915050565b6000602082019050919050565b6000612c4582612a31565b612c4f8185612a3c565b935083602082028501612c6185612a4d565b8060005b85811015612c9d5784840389528151612c7e8582612c19565b9450612c8983612c2d565b925060208a01995050600181019050612c65565b50829750879550505050505092915050565b60006020820190508181036000830152612cc98184612c3a565b905092915050565b600080fd5b600080fd5b7f4e487b7100000000000000000000000000000000000000000000000000000000600052604160045260246000fd5b612d1382612aa3565b810181811067ffffffffffffffff82111715612d3257612d31612cdb565b5b80604052505050565b6000612d4561266a565b9050612d518282612d0a565b919050565b600067ffffffffffffffff821115612d7157612d70612cdb565b5b612d7a82612aa3565b9050602081019050919050565b82818337600083830152505050565b6000612da9612da484612d56565b612d3b565b905082815260208101848484011115612dc557612dc4612cd6565b5b612dd0848285612d87565b509392505050565b600082601f830112612ded57612dec612cd1565b5b8135612dfd848260208601612d96565b91505092915050565b60008060008060808587031215612e2057612e1f612674565b5b600085013567ffffffffffffffff811115612e3e57612e3d612679565b5b612e4a87828801612dd8565b945050602085013567ffffffffffffffff811115612e6b57612e6a612679565b5b612e7787828801612dd8565b9350506040612e88878288016129dc565b9250506060612e998782880161275a565b91505092959194509250565b612eae81612703565b8114612eb957600080fd5b50565b600081359050612ecb81612ea5565b92915050565b60008060408385031215612ee857612ee7612674565b5b6000612ef68582860161275a565b9250506020612f0785828601612ebc565b9150509250929050565b606082016000820151612f2760008501826127fa565b506020820151612f3a6020850182612809565b506040820151612f4d6040850182612818565b50505050565b6000606082019050612f686000830184612f11565b92915050565b600081519050919050565b600082825260208201905092915050565b6000819050602082019050919050565b6000612fa68383612809565b60208301905092915050565b6000602082019050919050565b6000612fca82612f6e565b612fd48185612f79565b9350612fdf83612f8a565b8060005b83811015613010578151612ff78882612f9a565b975061300283612fb2565b925050600181019050612fe3565b5085935050505092915050565b600060208201905081810360008301526130378184612fbf565b905092915050565b6000610180830160008301516130586000860182612809565b50602083015161306b6020860182612809565b50604083015161307e6040860182612809565b5060608301516130916060860182612809565b5060808301516130a46080860182612809565b5060a083015184820360a08601526130bc8282612ab4565b91505060c083015184820360c08601526130d68282612ab4565b91505060e08301516130eb60e0860182612818565b50610100830151613100610100860182612818565b50610120830151613115610120860182612aff565b5061014083015161312a6101408601826127fa565b5061016083015161313f6101608601826127fa565b508091505092915050565b60006020820190508181036000830152613164818461303f565b905092915050565b600082825260208201905092915050565b600061318882612a5d565b613192818561316c565b93506131a2818560208601612a79565b6131ab81612aa3565b840191505092915050565b600060208201905081810360008301526131d0818461317d565b905092915050565b7f496e73756666696369656e742066756e64000000000000000000000000000000600082015250565b600061320e60118361316c565b9150613219826131d8565b602082019050919050565b6000602082019050818103600083015261323d81613201565b9050919050565b7f5061796d656e74206d61646520616c7265616479000000000000000000000000600082015250565b600061327a60148361316c565b915061328582613244565b602082019050919050565b600060208201905081810360008301526132a98161326d565b9050919050565b7f496e73756666696369656e7420766f7465730000000000000000000000000000600082015250565b60006132e660128361316c565b91506132f1826132b0565b602082019050919050565b60006020820190508181036000830152613315816132d9565b9050919050565b7f4e487b7100000000000000000000000000000000000000000000000000000000600052601160045260246000fd5b600061335682612739565b915061336183612739565b92508282039050818111156133795761337861331c565b5b92915050565b7f5041594d454e54205452414e5346455245440000000000000000000000000000600082015250565b60006133b560128361316c565b91506133c08261337f565b602082019050919050565b60006060820190506133e0600083018561299b565b81810360208301526133f1816133a8565b9050613400604083018461290e565b9392505050565b7f416363657373436f6e74726f6c3a2063616e206f6e6c792072656e6f756e636560008201527f20726f6c657320666f722073656c660000000000000000000000000000000000602082015250565b6000613463602f8361316c565b915061346e82613407565b604082019050919050565b6000602082019050818103600083015261349281613456565b9050919050565b7f4e487b7100000000000000000000000000000000000000000000000000000000600052602260045260246000fd5b600060028204905060018216806134e057607f821691505b6020821081036134f3576134f2613499565b5b50919050565b7f4e487b7100000000000000000000000000000000000000000000000000000000600052603260045260246000fd5b600061353382612739565b91507fffffffffffffffffffffffffffffffffffffffffffffffffffffffffffffffff82036135655761356461331c565b5b600182019050919050565b600063ffffffff82169050919050565b600061358b82613570565b915063ffffffff82036135a1576135a061331c565b5b600182019050919050565b60008190508160005260206000209050919050565b60006020601f8301049050919050565b600082821b905092915050565b60006008830261360e7fffffffffffffffffffffffffffffffffffffffffffffffffffffffffffffffff826135d1565b61361886836135d1565b95508019841693508086168417925050509392505050565b6000819050919050565b600061365561365061364b84612739565b613630565b612739565b9050919050565b6000819050919050565b61366f8361363a565b61368361367b8261365c565b8484546135de565b825550505050565b600090565b61369861368b565b6136a3818484613666565b505050565b5b818110156136c7576136bc600082613690565b6001810190506136a9565b5050565b601f82111561370c576136dd816135ac565b6136e6846135c1565b810160208510156136f5578190505b613709613701856135c1565b8301826136a8565b50505b505050565b600082821c905092915050565b600061372f60001984600802613711565b1980831691505092915050565b6000613748838361371e565b9150826002028217905092915050565b61376182612a5d565b67ffffffffffffffff81111561377a57613779612cdb565b5b61378482546134c8565b61378f8282856136cb565b600060209050601f8311600181146137c257600084156137b0578287015190505b6137ba858261373c565b865550613822565b601f1984166137d0866135ac565b60005b828110156137f8578489015182556001820191506020850194506020810190506137d3565b868310156138155784890151613811601f89168261371e565b8355505b6001600288020188555050505b505050505050565b600061383582612739565b915061384083612739565b92508282019050808211156138585761385761331c565b5b92915050565b7f50524f504f53414c205241495345440000000000000000000000000000000000600082015250565b6000613894600f8361316c565b915061389f8261385e565b602082019050919050565b60006060820190506138bf600083018561299b565b81810360208301526138d081613887565b90506138df604083018461290e565b9392505050565b7f50524f504f53414c20564f544500000000000000000000000000000000000000600082015250565b600061391c600d8361316c565b9150613927826138e6565b602082019050919050565b6000606082019050613947600083018561299b565b81810360208301526139588161390f565b9050613967604083018461290e565b9392505050565b7f4d757374206265206d6f7265207468616e203020657468657200000000000000600082015250565b60006139a460198361316c565b91506139af8261396e565b602082019050919050565b600060208201905081810360008301526139d381613997565b9050919050565b7f434f4e545249425554494f4e2052454345495645440000000000000000000000600082015250565b6000613a1060158361316c565b9150613a1b826139da565b602082019050919050565b6000606082019050613a3b600083018561299b565b8181036020830152613a4c81613a03565b9050613a5b604083018461290e565b9392505050565b7f5265656e7472616e637947756172643a207265656e7472616e742063616c6c00600082015250565b6000613a98601f8361316c565b9150613aa382613a62565b602082019050919050565b60006020820190508181036000830152613ac781613a8b565b9050919050565b600081905092915050565b50565b6000613ae9600083613ace565b9150613af482613ad9565b600082019050919050565b6000613b0a82613adc565b9150819050919050565b7f5061796d656e74206661696c6564000000000000000000000000000000000000600082015250565b6000613b4a600e8361316c565b9150613b5582613b14565b602082019050919050565b60006020820190508181036000830152613b7981613b3d565b9050919050565b7f70726f706f73616c206475726174696f6e206578706972656400000000000000600082015250565b6000613bb660198361316c565b9150613bc182613b80565b602082019050919050565b60006020820190508181036000830152613be581613ba9565b9050919050565b7f446f75626c6520766f74696e67206e6f7420616c6c6f77656400000000000000600082015250565b6000613c2260198361316c565b9150613c2d82613bec565b602082019050919050565b60006020820190508181036000830152613c5181613c15565b9050919050565b600081905092915050565b7f416363657373436f6e74726f6c3a206163636f756e7420000000000000000000600082015250565b6000613c99601783613c58565b9150613ca482613c63565b601782019050919050565b6000613cba82612a5d565b613cc48185613c58565b9350613cd4818560208601612a79565b80840191505092915050565b7f206973206d697373696e6720726f6c6520000000000000000000000000000000600082015250565b6000613d16601183613c58565b9150613d2182613ce0565b601182019050919050565b6000613d3782613c8c565b9150613d438285613caf565b9150613d4e82613d09565b9150613d5a8284613caf565b91508190509392505050565b6000613d7182612739565b9150613d7c83612739565b9250828202613d8a81612739565b91508282048414831517613da157613da061331c565b5b5092915050565b6000613db382612739565b915060008203613dc657613dc561331c565b5b600182039050919050565b7f537472696e67733a20686578206c656e67746820696e73756666696369656e74600082015250565b6000613e0760208361316c565b9150613e1282613dd1565b602082019050919050565b60006020820190508181036000830152613e3681613dfa565b905091905056fe556e617574686f72697a6564206163636573733a205374616b65686f6c64657273206f6e6c79207065726d697474656444656e6965643a2055736572206973206e6f74206120636f6e7472696275746f7270726f706f73616c206372656174696f6e20616c6c6f77656420666f7220746865207374616b65686f6c646572206f6e6c79a2646970667358221220a1b8ae4afa8c35a1903042fa3b1d092d0aee8b0bcb087311e1b34fb96855d9c064736f6c63430008110033",
  "linkReferences": {},
  "deployedLinkReferences": {}
}